:100000000C949F030C949C040C94C6040C94F00470
:100010000C947F050C940E060C94C7030C94C70334
:100020000C94C7030C94C7030C94C7030C94C70328
:100030000C94C7030C94C7030C9491220C94C7032F
:100040000C94852F0C94C7030C94A3320C94D532D6
:100050000C94C7030C94C7030C94C7030C94C703F8
:100060000C94C7030C94C7030A436F756E74446FF6
:10007000776E203A20000A416E6E2D00203A205003
:100080006C61796572202D20000A41737369676E77
:100090005465616D202D20004C43442064726976C4
:1000A0006572203A20000A486572652077652067EE
:1000B0006F20626F79732E2E2E2E00000102030432
:1000C0000506070001020304050001020304050000
:1000D000000000003E5B4F5B3E3E6B4F6B3E1C3EA4
:1000E0007C3E1C183C7E3C181C577D571C1C5E7FB8
:1000F0005E1C00183C1800FFE7C3E7FF0018241837
:1001000000FFE7DBE7FF30483A060E26297929266B
:10011000407F050507407F05253F5A3CE73C5A7F55
:100120003E1C1C08081C1C3E7F14227F22145F5FAB
:10013000005F5F06097F017F006689956A606060E5
:10014000606094A2FFA29408047E040810207E2020
:100150001008082A1C08081C2A08081E1010101075
:100160000C1E0C1E0C30383E3830060E3E0E0600BB
:100170000000000000005F00000007000700147F7F
:10018000147F14242A7F2A122313086462364956E6
:1001900020500008070300001C2241000041221CDF
:1001A000002A1C7F1C2A08083E08080080703000C6
:1001B0000808080808000060600020100804023EDB
:1001C0005149453E00427F4000724949494621411C
:1001D000494D331814127F1027454545393C4A498B
:1001E00049314121110907364949493646494929CA
:1001F0001E000014000000403400000008142241DA
:100200001414141414004122140802015909063E62
:10021000415D594E7C1211127C7F494949363E415D
:100220004141227F4141413E7F494949417F09097E
:1002300009013E414151737F0808087F00417F4119
:10024000002040413F017F081422417F4040404050
:100250007F021C027F7F0408107F3E4141413E7FA8
:10026000090909063E4151215E7F0919294626499F
:1002700049493203017F01033F4040403F1F204076
:10028000201F3F4038403F63140814630304780480
:10029000036159494D43007F414141020408102048
:1002A000004141417F0402010204404040404000BF
:1002B0000307080020545478407F284444383844C9
:1002C000444428384444287F385454541800087E45
:1002D000090218A4A49C787F0804047800447D4097
:1002E000002040403D007F1028440000417F400036
:1002F0007C047804787C080404783844444438FC4E
:100300001824241818242418FC7C080404084854D1
:1003100054542404043F44243C4040207C1C20408E
:10032000201C3C4030403C44281028444C90909085
:100330007C4464544C4400083641000000770000BF
:10034000004136080002010204023C2623263C1E1E
:10035000A1A161123A4040207A3854545559215590
:1003600055794122545478422155547840205455AF
:1003700079400C1E527212395555555939545454FE
:100380005939555454580000457C410002457D427E
:100390000001457C407D1211127DF0282528F07C5B
:1003A000545545002054547C547C0A097F493249F5
:1003B0004949323A4444443A324A4848303A414141
:1003C000217A3A42402078009DA0A07D3D424242E1
:1003D0003D3D4040403D3C24FF2424487E49436647
:1003E0002B2FFC2F2BFF0929F620C0887E09032024
:1003F000545479410000447D413048484A323840E5
:1004000040227A007A0A0A727D0D19317D26292947
:100410002F28262929292630484D40203808080849
:100420000808080808382F10C8ACBA2F102834FA6A
:1004300000007B000008142A142222142A140855F4
:1004400000550055AA55AA55AAFF55FF55FF0000B3
:1004500000FF00101010FF00141414FF001010FF14
:1004600000FF1010F010F0141414FC001414F70026
:10047000FF0000FF00FF1414F404FC141417101FF5
:1004800010101F101F1414141F00101010F0000083
:1004900000001F101010101F10101010F01000009E
:1004A00000FF101010101010101010FF10000000AE
:1004B000FF140000FF00FF00001F10170000FC04E5
:1004C000F414141710171414F404F40000FF00F7C8
:1004D00014141414141414F700F71414141714102B
:1004E000101F101F141414F4141010F010F000005A
:1004F0001F101F0000001F14000000FC140000F07B
:1005000010F01010FF10FF141414FF141010101F1F
:1005100000000000F010FFFFFFFFFFF0F0F0F0F030
:10052000FFFFFF0000000000FFFF0F0F0F0F0F384D
:1005300044443844FC4A4A4A347E02020606027E9B
:10054000027E0263554941633844443C04407E20A6
:100550001E2006027E020299A5E7A5991C2A492AB7
:100560001C4C7201724C304A4D4D30304878483046
:10057000BC625A463D3E494949007E0101017E2A3E
:100580002A2A2A2A44445F444440514A4440404471
:100590004A51400000FF0103E080FF000008086BA3
:1005A0006B083612362436060F090F06000018189D
:1005B0000000001010003040FF0101001F01011E6B
:1005C00000191D1712003C3C3C3C00000000005F7D
:1005D000003000310001000001020000070300307C
:1005E0001008000203090000000A00080010009033
:1005F000071100050012000000130000001000B0F9
:10060000121100070012008C0013000017290022AD
:1006100000300000003100050532000502350006FB
:1006200002360008043700000038000405390006CF
:10063000023C0006023D000804500000005100EF9B
:10064000005200000053003F01600000A76100015C
:100650000090003300070033010100000102000098
:10066000070300301008000203090000000A000818
:100670000010009007110005001200000013000098
:10068000001000B0121100070012008C00130000CF
:100690001729002200300000003100050532000556
:1006A0000235000602360008043700000038000456
:1006B00005390006023C0006023D00080450000017
:1006C000005100EF005200000053003F01600000A5
:1006D000A761000100900033000700330100000013
:1006E00008000201000003040700000000000000F1
:1006F00000010204081020408001020408102001BB
:100700000204081020040404040404040402020285
:100710000202020303030303030000000023002678
:1007200000290000000000250028002B0000000028
:1007300000240027002A00005F090533D509112491
:100740001FBECFEFD8E0DEBFCDBF15E0A0E0B1E027
:10075000E0E3F7E702C005900D92A837B107D9F79B
:1007600028E0A8E7B5E001C01D92A236B207E1F784
:1007700017E0CCE3D7E004C02297FE010E94BA380C
:10078000C833D107C9F70E9449330C948B3B0C94B2
:1007900000000C942E3B0C94363BA82FAF7787FDBE
:1007A00005C08EEF8A0F823008F499C0B0E0FD01D9
:1007B000EF50F94F2491FD01EB5FF84F8491942F96
:1007C0009D7F9130B9F4823031F490912E07922BB5
:1007D00090932E070FC0833031F490912B07922B0A
:1007E00090932B0707C0843029F490912807922B0F
:1007F0009093280741504230B8F4823031F4909100
:100800002D07922B90932D070FC0833031F49091D8
:100810002A07922B90932A0707C0843029F49091DD
:100820002707922B90932707FD01E554FF4FA491D2
:100830008230C1F4B0E0AA0FBB1FA55BB84F6D9327
:100840007C93EDE1F7E0A591B4918C9180932C0716
:100850008BE690E090935C0780935B078091680043
:10086000816033C08330C1F4B0E0AA0FBB1FA15C2C
:10087000B84F6D937C93EFE1F7E0A591B4918C9123
:10088000809329078CE690E090935C0780935B0748
:1008900080916800826019C08430C9F4B0E0AA0F6A
:1008A000BB1FA15DB84F6D937C93E1E2F7E0A5918A
:1008B000B4918C91809326078DE690E090935C072D
:1008C00080935B0780916800846080936800A091AA
:1008D0005B07B0915C078C91822B8C9308959FB736
:1008E000F894A23099F47093580760935707E898EA
:1008F000809169008C7F8093690080916900842BCE
:1009000080936900E09AE89A9FBF089570935A0710
:1009100060935907E99880916900837F809369000B
:100920008091690024E0429FA0011124842B8093D0
:100930006900E19AE99AE8CF1F920F920FB60F92E1
:1009400011242F933F934F935F936F937F938F93D4
:100950009F93AF93BF93EF93FF9382E080935E07E3
:10096000E0915707F09158070995FF91EF91BF91DA
:10097000AF919F918F917F916F915F914F913F9137
:100980002F910F900FBE0F901F9018951F920F92EE
:100990000FB60F9211242F933F934F935F936F9352
:1009A0007F938F939F93AF93BF93EF93FF9383E0D6
:1009B00080935E07E0915907F0915A070995FF91DE
:1009C000EF91BF91AF919F918F917F916F915F91C7
:1009D0004F913F912F910F900FBE0F901F90189540
:1009E0001F920F920FB60F9211242F933F934F93A4
:1009F0005F936F937F938F939F93AF93BF93CF93A7
:100A0000DF93EF93FF93D3B1C0912C0790912E0702
:100A100020912D078D2F809582239D23892B9091E6
:100A20006B00CD27C923C823D0932C07CC2309F40E
:100A300053C0C0FF0CC088E080935E078D2F81708B
:100A400080935D07E0914B07F0914C070995C1FF3A
:100A50000CC089E080935E078D2F827080935D07C4
:100A6000E0914D07F0914E070995C2FF0CC08AE056
:100A700080935E078D2F847080935D07E0914F0710
:100A8000F09150070995C3FF0CC08BE080935E077F
:100A90008D2F887080935D07E0915107F091520788
:100AA0000995C4FF0CC08CE080935E078D2F807188
:100AB00080935D07E0915307F09154070995C5FFB6
:100AC0000BC08DE080935E07D072D0935D07E091FC
:100AD0005507F09156070995FF91EF91DF91CF915E
:100AE000BF91AF919F918F917F916F915F914F9146
:100AF0003F912F910F900FBE0F901F9018951F924E
:100B00000F920FB60F9211242F933F934F935F9341
:100B10006F937F938F939F93AF93BF93CF93DF9305
:100B2000EF93FF93D6B1C091290790912B072091A5
:100B30002A078D2F809582239D23892B90916C000D
:100B4000CD27C923C823D0932907CC2309F453C048
:100B5000C0FF0CC08EE080935E078D2F8170809364
:100B60005D07E0913F07F09140070995C1FF0CC078
:100B70008FE080935E078D2F827080935D07E091F8
:100B80004107F09142070995C2FF0CC080E18093B4
:100B90005E078D2F847080935D07E0914307F0918D
:100BA00044070995C3FF0CC081E180935E078D2F38
:100BB000887080935D07E0914507F091460709959D
:100BC000C4FF0CC082E180935E078D2F80718093FB
:100BD0005D07E0914707F09148070995C5FF0BC0F5
:100BE00083E180935E07D072D0935D07E09149075F
:100BF000F0914A070995FF91EF91DF91CF91BF9155
:100C0000AF919F918F917F916F915F914F913F91A4
:100C10002F910F900FBE0F901F9018951F920F925B
:100C20000FB60F9211242F933F934F935F936F93BF
:100C30007F938F939F93AF93BF93CF93DF93EF9364
:100C4000FF93D9B1C09126079091280720912707DB
:100C50008D2F809582239D23892B90916D00CD2728
:100C6000C923C823D0932607CC2309F46EC0C0FF44
:100C70000BC010925E078D2F817080935D07E0910D
:100C80002F07F09130070995C1FF0CC081E08093D8
:100C90005E078D2F827080935D07E0913107F091A0
:100CA00032070995C2FF0CC082E080935E078D2F4A
:100CB000847080935D07E0913307F09134070995C4
:100CC000C3FF0CC083E080935E078D2F88708093F4
:100CD0005D07E0913507F09136070995C4FF0CC018
:100CE00084E080935E078D2F807180935D07E09193
:100CF0003707F09138070995C5FF0CC085E0809350
:100D00005E078D2F807280935D07E0913907F09127
:100D10003A070995C6FF0CC086E080935E078D2FC9
:100D2000807480935D07E0913B07F0913C07099543
:100D3000C7FF0BC087E080935E07D078D0935D0734
:100D4000E0913D07F0913E070995FF91EF91DF910A
:100D5000CF91BF91AF919F918F917F916F915F9153
:100D60004F913F912F910F900FBE0F901F901895AC
:100D700060911E01615080911F0198E0899F600D74
:100D8000112460932D0670E048E081E796E00C9412
:100D900043230F931F930E94CF2F009113061091AE
:100DA00014062091150630911606601B710B820BFC
:100DB000930B6D3D75408105910508F480C066E791
:100DC00070E081EC97E00E9496334091190150E069
:100DD00060E581E796E00E940F264091180150E0FF
:100DE00064E481E796E00E940F264091170150E0ED
:100DF00064E481E796E00E940F264091160150E0DE
:100E000064E481E796E00E940F264091150150E0CE
:100E100064E481E796E00E940F264091140150E0BF
:100E200064E481E796E00E940F264091170650E0A7
:100E300064E481E796E00E940F264091130150E0A0
:100E400064E481E796E00E940F264091120150E091
:100E500064E481E796E00E940F264091110150E082
:100E600064E481E796E00E940F264091100150E073
:100E700064E481E796E00E940F2640910F0150E064
:100E800064E481E796E00E940F2640910E0150E055
:100E900064E481E796E00E940F2640910D0150E046
:100EA00063E481E796E00E940F260E94CF2F6093B3
:100EB00013067093140680931506909316061F91DF
:100EC0000F91089580910A01882309F44DC068E6C6
:100ED00070E081EC97E00E9496334AE050E0609128
:100EE0000A0181EC97E00E945F3440E050E060E549
:100EF00081E796E00E940F264091180150E064E4DB
:100F000081E796E00E940F2640910A0150E064E4D8
:100F100081E796E00E940F2648E050E064E481E714
:100F200096E00E940F2648E050E064E481E796E0F6
:100F30000E940F2640E050E064E481E796E00E94C2
:100F40000F2640E050E063E481E796E00E940F2620
:100F500080910A01815080930A0168EE73E080E07D
:100F600090E00E94FE2FAECF8DE680932101089580
:100F70008FEF80930F0680930B068093100680936B
:100F80000C068093110680930D06809312068093C1
:100F90000E0608954F925F926F927F929F92AF924A
:100FA000BF92CF92DF92EF92FF920F931F93CF9356
:100FB000DF9300D000D000D0CDB7DEB7982E8DE300
:100FC00096E00E94CB2D29833A834B835C836D830B
:100FD0007E8361E080E10E94C43061E08FE00E9486
:100FE000C43085E496E00E94E5219C0149805A8046
:100FF000B201882777FD8095982F2901662457FC38
:101000006094762C7F926F925F924F92A12CB12CBC
:1010100065011AE5E12EF12C00E010E023EB33E04E
:1010200040E050E00E94933470930A0660930906F2
:1010300085E496E00E94E921AC014B805C80B2011E
:10104000882777FD8095982F2A01662457FC6094A5
:10105000762C7F926F925F924F9219E8E12EF12CDD
:1010600000E010E02EEB33E040E050E00E949334CB
:1010700070930806609307060FB6F894DEBF0FBEA4
:10108000CDBF8D819E810B9714F099249394892D67
:1010900026960FB6F894DEBF0FBECDBFDF91CF917D
:1010A0001F910F91FF90EF90DF90CF90BF90AF9086
:1010B0009F907F906F905F904F90089580E00E9486
:1010C000CA078823A1F168EC70E080E090E00E94FC
:1010D000FE2F2091090630910A0640910706509193
:1010E0000806E7EAF5E080E090E060817181621730
:1010F0007307BCF4648175812617370794F4628105
:101100007381641775076CF46681778146175707FA
:1011100044F4FC01EE0FFF1FE157FA4F20813181AB
:1011200008C0019638968C309105F9F6089523E2AF
:1011300031E0C90108952F923F924F925F926F92D2
:101140007F928F929F92AF92BF92CF92DF92EF9257
:10115000FF920F931F93CF93DF9300D01F92CDB7D1
:10116000DEB79B838A834B011A0129013701C982AB
:101170006801BAE0EB2EF12C89019A01AB01BC01A8
:1011800085E496E00E94D31EB50185E496E00E94B6
:10119000CA21698185E496E00E94C421F30101908F
:1011A0000020E9F73197E619F709398127E0329FE6
:1011B000C001112495958795A401481B590BC201C4
:1011C00096958795480F591FB101769567958A8145
:1011D0009B81680F791F9F0121503109A5E0AE9FC7
:1011E000C001AF9F900D1124280F391FA981A29F24
:1011F000C001A39F900D112496958795681B790BCC
:1012000085E496E00E94BE21B30185E496E00E9449
:10121000F13320912F062223C1F1822F90E0FC01AF
:1012200073E0EE0FFF1F7A95E1F7E955FA4F4A8117
:101230005B815183408393828282240E351E3582E6
:101240002482840C951C97828682FC01EE0FFF1F7E
:10125000E157FA4F718260822F5F20932F060F9023
:101260000F900F90DF91CF911F910F91FF90EF9012
:10127000DF90CF90BF90AF909F908F907F906F90B6
:101280005F904F903F902F900895E7EAF5E011822C
:101290001082138212821582148217821682389667
:1012A00056E0E730F50799F7EFE8F5E089EA92E0D4
:1012B00081939193A5E0E73AFA07D1F7AECFEF9289
:1012C000FF920F93CF9381E796E00E94E22285E49C
:1012D00096E00E9456293CE2E32EFF24F39407E0B7
:1012E00020E14FE066E08DE396E00E94482F80E029
:1012F00090E00E94C90380933C0682E090E00E9447
:10130000C90380933B0681E090E00E94C90391E00D
:10131000811101C090E090933A0680E190E00E9434
:10132000C9038093360681E190E00E94C90380934F
:10133000370682E190E00E94C9038093380683E17A
:1013400090E00E94C9038093390684E090E00E94F7
:10135000C9038093350686E090E00E94C90380931C
:1013600034068AE090E00E94C903C82F80933306B8
:101370008CE090E00E94C903809332068EE090E0FA
:101380000E94C90380933106C09330060E94CF2F7C
:1013900060931306709314068093150690931606B7
:1013A000CF910F91FF90EF9008958DEA96E00E9403
:1013B000DA3487EA96E00C94DA34CF93DF9326E0B0
:1013C00040E052EC61E070E081EC97E00E94413235
:1013D00064EF71E080E090E00E94FE2F66EA70E02A
:1013E00081EC97E00E94CD334BE06DE081E796E021
:1013F0000E94F22285E496E00E94C72685E496E0EA
:101400000E94EA29EC0168E970E081EC97E00E9413
:1014100096334AE050E0BE0181EC97E00E947D34B3
:10142000209711F4C9E8D7E7BE0185E496E00E9451
:101430004D2CC938D74711F462E001C060E085E463
:1014400096E00E940F2960E070E085E496E00E943B
:101450008A2C809132068F3F39F41092320660E078
:101460008CE090E00E94CB0380913B068F3F41F4DB
:101470008AE080933B066AE082E090E00E94CB0322
:1014800080913C068F3F39F410923C0660E080E08A
:1014900090E00E94CB03809131068F3F41F48EE1B2
:1014A000809331066FE08EE090E00E94CB03809144
:1014B0003306853660F08FE0809333066FE08AE074
:1014C00090E00E94CB038091330680933006809198
:1014D00035068F3F39F41092350660E084E090E0E5
:1014E0000E94CB03809134068F3F41F481E08093CA
:1014F000340661E086E090E00E94CB0380913606DE
:101500008F3F11F581E08093360661E080E190E045
:101510000E94CB0382E08093370662E081E190E095
:101520000E94CB0383E08093380663E082E190E081
:101530000E94CB0384E08093390664E083E190E06D
:10154000DF91CF910C94CB03DF91CF910895CF928F
:10155000DF92EF92FF920F931F93CF93DF936FEF82
:101560007FEF85E496E00E948A2C68EE73E080E0CD
:1015700090E00E94FE2F0BE016E046E3E42E46E0EA
:10158000F42EC0E1D0E06801F80161918F01CE0135
:101590000E94CB03F6018081F70181937F012196A0
:1015A000C431D10581F7DF91CF911F910F91FF9049
:1015B000EF90DF90CF900895EF92FF920F93CF932B
:1015C000DF93EB017901BA0185E496E00E948A2C51
:1015D000FE0101900020E9F73197EC1BFD0BCF01D4
:1015E000019745E04E9F90014F9F300D1124820FCF
:1015F000931F089FA001099F500D112456954795F0
:1016000068E770E0641B750B45E050E085E496E008
:101610000E94BE21B70185E496E00E94CA21602F96
:1016200085E496E00E94C421BE0185E496E00E9414
:10163000F13310922F068091210180932001DF91D8
:10164000CF910F91FF90EF900895AF92BF92CF92FC
:10165000EF92FF920F931F939091200180912101AF
:10166000981709F469C003E02FEF3FEF4FE158EFFF
:1016700066E271E081E30E94DC0AAA24AA94BA2CF3
:10168000E2E0CE2EFDE2EF2EF1E0FF2E00E010E0D2
:101690002DE230E048EC50E063E270E084E190E05D
:1016A0000E949B08A9E3EA2EA1E0FA2E2DE230E089
:1016B00048EC50E065E570E084E190E00E949B0812
:1016C000B9E4EB2EB1E0FB2E2DE230E048EC50E027
:1016D00067E870E084E190E00E949B0885E5E82ED1
:1016E00081E0F82E2DE230E048EC50E069EB70E04C
:1016F00084E190E00E949B089EE5E92E91E0F92E9E
:101700002DE230E048EC50E06BEE70E084E190E0D8
:101710000E949B08A12CB12C26E6E22E21E0F22E9D
:1017200000EE1FEF2EE130E044E650E062E271E0AF
:1017300086E490E00E949B081F910F91FF90EF902C
:10174000CF90BF90AF9008950E94250B0E945E0835
:1017500021E08535920711F489E61CC021E0893328
:10176000920711F484E616C021E08934920711F43F
:1017700088E610C021E08D32920711F482E70AC09A
:1017800021E08E35920711F482E304C08656914021
:1017900019F48DE6809321010895AF92BF92CF9204
:1017A000EF92FF920F931F9390912001809121015E
:1017B000981709F44DC003E02FEF3FEF4FE158EFCA
:1017C00066E271E082E30E94DC0AAA24AA94BA2CA1
:1017D00042E0C42E5BE6E52E51E0F52E00E010E07D
:1017E00027E330E048EC50E062E370E084E190E011
:1017F0000E949B0866E7E62E61E0F62E27E330E0C4
:1018000048EC50E062ED70E084E190E00E949B08BB
:101810007DE7E72E71E0F72E27E330E048EC50E05B
:1018200068E770E084E190E00E949B08A12CB12C55
:10183000E6E6EE2EE1E0FE2E00EE1FEF2EE130E0B8
:1018400044E650E062E271E086E490E00E949B088A
:101850001F910F91FF90EF90CF90BF90AF900895A0
:101860000E94CD0B0E945E0821E08B36920711F496
:1018700088E710C021E08637920711F484E70AC098
:1018800021E08D37920711F488E404C08656914018
:1018900019F481E3809321010895AF92BF92CF9212
:1018A000DF92EF92FF920F931F939091200180910E
:1018B0002101981709F474C003E02FEF3FEF4FE1C7
:1018C00058EF67E871E089E60E94DC0AAA24AA942E
:1018D000BA2CA2E0CA2EB3E9EB2EB1E0FB2E00E059
:1018E00010E027E330E048EC50E068E270E084E18B
:1018F00090E00E949B088BE9E82E81E0F82E27E318
:1019000030E048EC50E064E670E084E190E00E9452
:101910009B0892EAE92E91E0F92E27E330E048ECAB
:1019200050E060EA70E084E190E00E949B0829EAC0
:10193000E22E21E0F22E27E330E048EC50E06CED9F
:1019400070E084E190E00E949B08A12CB12C36E667
:10195000E32E31E0F32E00EE1FEF2EE130E044E6FF
:1019600050E062E271E086E490E00E949B084091C2
:1019700035068CE3489FA0011124495C5F4F60EE5F
:10198000C62EDD24DA9475E0E72EF12C09E110E093
:1019900029E130E064EB70E085E496E00E94D31E1C
:1019A0001F910F91FF90EF90DF90CF90BF90AF907D
:1019B00008950E944D0C0E945E0821E08339920731
:1019C00019F41092350607C021E08B39920739F4DB
:1019D00081E0809335068EE680932001089521E012
:1019E000823A920711F482E0F4CF21E0893A92071B
:1019F00011F483E0EECF8656914049F460913506AC
:101A000084E090E00E94CB0381E38093210108955C
:101A1000AF92BF92CF92DF92EF92FF920F931F93FC
:101A2000209135069091200180912101211150C013
:101A3000981709F4A8C003E02FEF3FEF4FE158EFEC
:101A400060EB71E088E60E94DC0AA12CB12C92E0E8
:101A5000C92E26E6E22E21E0F22E00EE1FEF2EE147
:101A600030E044E650E062E271E086E490E00E94FB
:101A70009B0860E070E085E496E00E94CA2163E084
:101A800085E496E00E94C4214CE850E065E070E0F7
:101A900085E496E00E94BE216AEB71E085E496E061
:101AA0000E94F13344EB50E065E070E085E496E09D
:101AB0000E94BE2168EC71E085E496E01F910F91D1
:101AC000FF90EF90DF90CF90BF90AF900C94F133E8
:101AD000981709F458C003E02FEF3FEF4FE158EF9C
:101AE00066ED71E088E60E94DC0AAA24AA94BA2C6A
:101AF000F2E0CF2EA0EEEA2EA1E0FA2E00E010E0F8
:101B000027E330E048EC50E060E570E084E190E0ED
:101B10000E949B08B4EEEB2EB1E0FB2E27E330E0F1
:101B200048EC50E064EB70E084E190E00E949B0898
:101B3000A12CB12C16E6E12E11E0F12E00EE1FEFE4
:101B40002EE130E044E650E062E271E086E490E0AD
:101B50000E949B0840913A062CE92403A00111241D
:101B60004D535F4F00EEC02EDD24DA9485E0E82E61
:101B7000F12C09E110E029E130E064EB70E085E44C
:101B800096E00E94D31E1F910F91FF90EF90DF907F
:101B9000CF90BF90AF9008950E94080D0E945E08FC
:101BA00021E0803E920721F481E080933A0606C04E
:101BB00021E0843E920731F410923A068EE680933B
:101BC000200108958656914049F460913A0681E0DB
:101BD00090E00E94CB0381E3809321010895AF92AE
:101BE000BF92CF92EF92FF920F931F93909120019B
:101BF00080912101981769F103E02FEF3FEF4FE14A
:101C000058EF67EE71E089E60E94DC0AAA24AA94E4
:101C1000BA2C42E0C42E54EEE52E51E0F52E00E041
:101C200010E027E330E048EC50E060E570E084E14C
:101C300090E00E949B0860EEE62E61E0F62E27E31E
:101C400030E048EC50E064EB70E084E190E00E940A
:101C50009B081F910F91FF90EF90CF90BF90AF9096
:101C60000895AF92BF92CF92EF92FF920F931F937E
:101C70009091200180912101981709F4CCC002E0D5
:101C800020EE3FEF40E050E064EF71E080E70E941B
:101C9000DC0AA12CB12C74E0C72EE0EAEE2EE1E0C4
:101CA000FE2E0FE110E021E430E041E450E069E174
:101CB00070E08AE090E00E949B08F7EAEF2EF1E0E6
:101CC000FF2E21E430E041E450E069E170E085E579
:101CD00090E00E949B08AEEAEA2EA1E0FA2E21E4F1
:101CE00030E041E450E069E170E080EA90E00E9479
:101CF0009B08B4E0EB2EB2E0FB2E21E430E041E49F
:101D000050E064E670E08AE090E00E949B0886E084
:101D1000E82E82E0F82E21E430E041E450E064E671
:101D200070E085E590E00E949B0898E0E92E92E043
:101D3000F92E21E430E041E450E064E670E080EA0E
:101D400090E00E949B082AE0E22E22E0F22E21E49D
:101D500030E041E450E06FEA70E08AE090E00E94F9
:101D60009B083CE0E32E32E0F32E21E430E041E436
:101D700050E06FEA70E085E590E00E949B084EE03D
:101D8000E42E42E0F42E21E430E041E450E06FEA3A
:101D900070E080EA90E00E949B08AA24AA94BA2CE2
:101DA00063E0C62E70E1E72E72E0F72E00E018EF38
:101DB00021E430E041E450E06AEF70E08AE090E036
:101DC0000E949B08A12CB12CE4E0CE2EF4E1EF2E72
:101DD000F2E0FF2E0FE110E021E430E041E450E0BA
:101DE0006AEF70E085E590E00E949B08AA24AA941F
:101DF000BA2CB3E0CB2E16E1E12E12E0F12E00EE6C
:101E000017E021E430E041E450E06AEF70E080EA5E
:101E100090E00E949B081F910F91FF90EF90CF9050
:101E2000BF90AF9008950E94EF0D0E945E0821E0E0
:101E3000803E920771F460E080E090E00E94CB0366
:101E400010923C0660E070E085E496E00E948A2CE7
:101E500003C0845E914019F481E3809321010895C9
:101E60006F927F928F929F92AF92BF92CF92DF92AA
:101E7000EF92FF920F931F93CF93DF93EC014B01EF
:101E8000CA015901D02E370110E02097F1F4F90171
:101E9000448155819A0121503109E5E0E49FB00168
:101EA000E59F700D1124260F371F209FA001219F51
:101EB000500D309F500D1124C0EFD0E0C41BD50B46
:101EC000D695C795FF24F39401C0F12C813091057C
:101ED00031F4A401BE0185E496E00E94252DC110D5
:101EE00002C0F501C4802C2D30E021503109F5E00D
:101EF000CF9E200D311D1124209FA001219F500D48
:101F0000309F500D11249A012E5F3F4FFF2051F05A
:101F1000EEEEF0E0E41BF50BF7FD3196BF01759591
:101F2000679503C0BE016150710947E0D49E8001EE
:101F300011240E5F1F4FA401415051097C0185E41B
:101F400096E00E94D42BB30185E496E00E94CA215A
:101F50006D2D85E496E00E94C421A401BE0185E4B4
:101F600096E00E94BE21B50185E496E0DF91CF9115
:101F70001F910F91FF90EF90DF90CF90BF90AF90A7
:101F80009F908F907F906F900C94DF33AF92BF92B1
:101F9000CF92EF92FF920F931F93CF93DF9300D0D6
:101FA00000D000D0CDB7DEB7909120018091210103
:101FB000981709F45AC003E02FEF3FEF4FE158EFB5
:101FC00069E172E084E60E94DC0AAA24AA94BA2C91
:101FD00042E0C42E55E2E52E52E0F52E00E010E07E
:101FE00027E330E048EC50E062E370E084E190E009
:101FF0000E949B0868E2E62E62E0F62E27E330E0BE
:1020000048EC50E062ED70E084E190E00E949B08B3
:10201000A12CB12C76E6E72E71E0F72E00EE1FEF33
:102020002EE130E044E650E062E271E086E490E0C8
:102030000E949B084AE060913B06CE0101960E94F7
:10204000AE35E3E0CE2EE12CF12C04E09E012F5FB3
:102050003F4F4FE158EF6CE870E080E090E00E9465
:10206000300FCE0101960E94DA3426960FB6F8940E
:10207000DEBF0FBECDBFDF91CF911F910F91FF90BB
:10208000EF90CF90BF90AF900895CF92EF92FF92D4
:102090000F93CF93DF9300D000D000D0CDB7DEB741
:1020A0000E94C60F0E945E0822E08532920721F44A
:1020B00060913B066F5F07C022E088329207F9F417
:1020C00060913B06615060933B064AE0CE01019669
:1020D0000E94AE35F3E0CF2EE12CF12C04E09E01FE
:1020E0002F5F3F4F4FE158EF6CE870E080E090E0E9
:1020F0000E94300FCE0101960E94DA340CC0865641
:10210000914049F460913B0682E090E00E94CB034D
:1021100081E38093210126960FB6F894DEBF0FBEAF
:10212000CDBFDF91CF910F91FF90EF90CF900895A9
:10213000AF92BF92CF92EF92FF920F931F93CF93E4
:10214000DF9300D000D000D0CDB7DEB79091200152
:1021500080912101981709F4B9C003E02FEF3FEFF8
:102160004FE158EF6DE272E088E40E94DC0AAA2495
:10217000AA94BA2CB2E0CB2E17E3E12E12E0F12E96
:1021800000E010E027E330E048EC50E068E270E067
:1021900084E190E00E949B084AE060911D01CE011D
:1021A00001960E94AE35CC24C394EE24EA94FE2C12
:1021B00003E09E012F5F3F4F40E050E067E370E097
:1021C00083EC90E00E94300FCE0101960E94DA3439
:1021D00082E0C82E95E4E92E92E0F92E00E010E0AE
:1021E00027E330E048EC50E064E670E084E190E002
:1021F0000E949B0860911C01CE0101960E949635B9
:10220000CC24C394EE24EA94FE2C03E09E012F5FBD
:102210003F4F40E050E063E770E083EC90E00E94C5
:10222000300FCE0101960E94DA3432E0C32E43E52E
:10223000E42E42E0F42E00E010E027E330E048EC2A
:1022400050E060EA70E084E190E00E949B086091B9
:102250001B01CE0101960E949635CC24C394EE2436
:10226000EA94FE2C03E09E012F5F3F4F40E050E0D8
:102270006FEA70E083EC90E00E94300FCE0101968F
:102280000E94DA3462E0C62E71E6E72E72E0F72E85
:1022900000E010E027E330E048EC50E06CED70E047
:1022A00084E190E00E949B08A12CB12CE6E6EE2E82
:1022B000E1E0FE2E00EE1FEF2EE130E044E650E0BC
:1022C00062E271E086E490E00E949B0826960FB6D9
:1022D000F894DEBF0FBECDBFDF91CF911F910F915C
:1022E000FF90EF90CF90BF90AF900895CF92EF9274
:1022F000FF920F93CF93DF9300D000D000D0CDB7E3
:10230000DEB70E9498100E945E0822E08136920794
:1023100069F44AE050E060911F0181EC97E00E946F
:10232000663481E080931E0181E68EC022E087330F
:102330009207C1F580911D018F5F843018F480935E
:102340001D0102C010921D0180911D01813019F400
:1023500082E080931D014AE060911D01CE0101964B
:102360000E94AE35CC24C394EE24EA94FE2C03E004
:102370009E012F5F3F4F40E050E067E370E083EC49
:1023800090E00E94300FCE0101960E94DA348091D5
:102390001D01811103C010921F0158C081E080937C
:1023A0001F0154C022E085349207F9F480911C018A
:1023B000893511F48EE403C08E3419F489E58093D5
:1023C0001C0160911C01CE0101960E949635CC241F
:1023D000C394EE24EA94FE2C03E09E012F5F3F4F4E
:1023E00040E050E063E770E022C022E083359207CE
:1023F00039F580911B01893511F48EE403C08E34C8
:1024000019F489E580931B0160911B01CE010196AF
:102410000E949635CC24C394EE24EA94FE2C03E06B
:102420009E012F5F3F4F40E050E06FEA70E083EC89
:1024300090E00E94300FCE0101960E94DA3406C06F
:102440008656914019F482E38093210126960FB6B7
:10245000F894DEBF0FBECDBFDF91CF910F91FF90FB
:10246000EF90CF900895AF92BF92CF92EF92FF92EC
:102470000F931F93CF93DF9300D000D000D0CDB740
:10248000DEB79091200180912101981709F49BC03B
:1024900003E02FEF3FEF4FE158EF67E672E088E48B
:1024A0000E94DC0A80911D01882309F465C0AA24DA
:1024B000AA94BA2C42E0C42E54E7E52E52E0F52E41
:1024C00000E010E027E330E048EC50E068E270E024
:1024D00084E190E00E949B0860E8E62E62E0F62E20
:1024E00027E330E048EC50E064E670E084E190E0FF
:1024F0000E949B084AE060911F01CE0101960E9454
:10250000AE35CC24C394EE24EA94FE2C03E09E0165
:102510002F5F3F4F40E050E067E370E083EC90E0D6
:102520000E94300FCE0101960E94DA3480911A0188
:10253000882339F063E272E0CE0101960E944835AB
:102540000CC06BE473E0CE0101960E944835CC24A8
:10255000C394EE24EA94FE2C03E09E012F5F3F4FCC
:1025600040E050E063E770E083EC90E00E94300FC1
:10257000CE0101960E94DA34AA24AA94BA2C02E071
:10258000C02E8FE8E82E82E0F82E00E010E027E36E
:1025900030E048EC50E06CED70E084E190E00E94A7
:1025A0009B08A12CB12C96E6E92E91E0F92E00EEC5
:1025B0001FEF2EE130E044E650E062E271E086E495
:1025C00090E00E949B0826960FB6F894DEBF0FBEDF
:1025D000CDBFDF91CF911F910F91FF90EF90CF90E2
:1025E000BF90AF900895CF92EF92FF920F93CF9349
:1025F000DF9300D000D000D0CDB7DEB781E897E000
:102600000E94822F69E972E08091B2079091B3072E
:102610000E94C73361EA72E08091B2079091B307DC
:102620000E94C73365E070E080E090E00E94FE2FDA
:1026300080911A01882351F181E897E00E94822F4E
:102640006AEA72E08091B2079091B3070E94C733A3
:1026500061EA72E08091B2079091B3070E94C7339C
:1026600065E070E080E090E00E94FE2F80913506EA
:102670008F5F8093350690911D01981780F581E05A
:102680008093350680911E018F5F27C081E897E017
:102690000E94822F62EB72E08091B2079091B307A3
:1026A0000E94C73361EA72E08091B2079091B3074C
:1026B0000E94C73365E070E080E090E00E94FE2F4A
:1026C00080911E018F5F80931E01883041F48091BC
:1026D0001F018F5F80931F0181E080931E014AE0FC
:1026E00060911F01CE0101960E94AE35CC24C394A7
:1026F000EE24EA94FE2C03E09E012F5F3F4F40E062
:1027000050E067E370E083EC90E00E94300FCE0170
:1027100001960E94DA3426960FB6F894DEBF0FBEFB
:10272000CDBFDF91CF910F91FF90EF90CF900895A3
:102730009F92AF92BF92CF92DF92EF92FF920F9350
:102740001F93CF93DF9300D000D000D0CDB7DEB77A
:102750000E94310E80918605909187050196909395
:102760008705809386058838934119F48DE6809318
:1027700021010E945E085C010E94B43AD82E80912B
:10278000840590918505049790F080E1A81682E079
:10279000B80609F051C06CEB72E0CE0101960E94C0
:1027A000483518E0C12EE12CF12C02E098C010E071
:1027B0008FE0982ED1123BC0E0918405F091850501
:1027C000E15FF94FD0826AEB72E0CE0101960E9480
:1027D00048358091840590918505989EF001999ED9
:1027E000F00D1124CC24C39400EEE02EFF24FA94C3
:1027F00002E09E012F5F3F4F40E050E065E070E057
:10280000CF018A569F4F0E94300FCE0101960E9441
:10281000DA3420918405309185052F5F3F4F309346
:1028200085052093840510928705109286051F5F09
:102830001A3009F0BFCFA9CF26E1A21622E0B206D6
:1028400009F064C090910F068091360698131CC061
:102850009091100680913706981316C0909111063A
:1028600080913806981310C0909112068091390615
:1028700098130AC0109285051092840581E3809315
:1028800021010E94B80742C064EC72E0CE010196BB
:102890000E944835F5E0CF2EE12CA8EFFA2E02E099
:1028A0009E012F5F3F4F40E050E065E070E086E919
:1028B00090E00E94300FCE0101960E94DA3464EF5E
:1028C00071E080E090E00E94FE2F6CEB72E0CE01A0
:1028D00001960E944835B8E0CB2EE12CF12C9E01E8
:1028E0002F5F3F4F40E050E065E070E086E990E008
:1028F0000E94300FCE0101960E94DA3410928505B5
:1029000010928405109287051092860526960FB6C0
:10291000F894DEBF0FBECDBFDF91CF911F910F9115
:10292000FF90EF90DF90CF90BF90AF909F90089571
:10293000AF92BF92CF92EF92FF920F931F93CF93DC
:10294000DF9300D000D000D0CDB7DEB720912001BA
:1029500090912101291709F439C1813059F402E01D
:1029600020EE3FEF40E050E06AEC72E080E70E942A
:10297000DC0A6AC0823009F067C002E020EE37E06E
:1029800040E050E069ED72E080E70E94DC0A4AE036
:1029900060910B06CE0101960E94AE35CC24C39403
:1029A000EE24EA94FE2C9E012F5F3F4F40E050E062
:1029B00065E070E086E990E00E94300FCE0101965C
:1029C0000E94DA344AE060910C06CE0101960E9422
:1029D000AE359E012F5F3F4F40E050E065E070E074
:1029E00085EA90E00E94300FCE0101960E94DA3411
:1029F0004AE060910D06CE0101960E94AE359E011F
:102A00002F5F3F4F40E050E065E070E084EB90E0E6
:102A10000E94300FCE0101960E94DA344AE06091A4
:102A20000E06CE0101960E94AE359E012F5F3F4FEC
:102A300040E050E065E070E083EC90E00E94300FF1
:102A4000CE0101960E94DA34A12CB12C94E0C92E5B
:102A500020EAE22E21E0F22E0FE110E021E430E046
:102A600041E450E069E170E08AE090E00E949B0858
:102A700037EAE32E31E0F32E21E430E041E450E088
:102A800069E170E085E590E00E949B084EEAE42E43
:102A900041E0F42E21E430E041E450E069E170E0EF
:102AA00080EA90E00E949B0854E0E52E52E0F52E6B
:102AB00021E430E041E450E064E670E08AE090E038
:102AC0000E949B0866E0E62E62E0F62E21E430E0EC
:102AD00041E450E064E670E085E590E00E949B08E8
:102AE00078E0E72E72E0F72E21E430E041E450E098
:102AF00064E670E080EA90E00E949B08EAE0EE2E37
:102B0000E2E0FE2E21E430E041E450E06FEA70E0C4
:102B10008AE090E00E949B08FCE0EF2EF2E0FF2E9E
:102B200021E430E041E450E06FEA70E085E590E0B8
:102B30000E949B08AEE0EA2EA2E0FA2E21E430E0EB
:102B400041E450E06FEA70E080EA90E00E949B0868
:102B5000AA24AA94BA2C12E0C12E00E1E02E02E0D1
:102B6000F02E00E018EF21E430E041E450E06AEF9D
:102B700070E08AE090E00E949B08A12CB12C84E0D8
:102B8000C82E94E1E92E92E0F92E0FE110E021E445
:102B900030E041E450E06AEF70E085E590E00E94AB
:102BA0009B08AA24AA94BA2C32E0C32E48EEE42E45
:102BB00042E0F42E00EE17E021E430E041E450E082
:102BC0006AEF70E080EA90E00E949B0826960FB6BC
:102BD000F894DEBF0FBECDBFDF91CF911F910F9153
:102BE000FF90EF90CF90BF90AF9008959F92AF92DB
:102BF000BF92CF92DF92EF92FF920F931F93CF93EA
:102C0000DF9300D000D000D0CDB7DEB781E00E94C6
:102C10009814809182059091830501969093830585
:102C2000809382058838934119F481E380932101D0
:102C30000E945E085C010E94B43AD82E8091800503
:102C400090918105049748F180E1A81682E0B806CA
:102C500009F068C06CEB72E0CE0101960E94483525
:102C600068E0C62EE12CF12C02E09E012F5F3F4F61
:102C700040E050E065E070E086E990E00E94300FAF
:102C8000CE0101960E94DA341092810510928005DF
:102C9000109283051092820551C010E0EFE09E2E45
:102CA000D1123BC0E0918005F0918105E55FF94FBD
:102CB000D0824AE06D2DCE0101960E94AE35809102
:102CC000800590918105989EF001999EF00D112448
:102CD000CC24C39470EEE72EFF24FA9402E09E0108
:102CE0002F5F3F4F40E050E065E070E0CF018A5633
:102CF0009F4F0E94300FCE0101960E94DA3420913E
:102D00008005309181052F5F3F4F309381052093DF
:102D1000800510928305109282051F5F1A3009F01A
:102D2000BFCF92CF28EEA21622E0B20639F410925D
:102D300081051092800589E78093210126960FB6C0
:102D4000F894DEBF0FBECDBFDF91CF911F910F91E1
:102D5000FF90EF90DF90CF90BF90AF909F9008953D
:102D60009F92AF92BF92CF92DF92EF92FF920F931A
:102D70001F93CF93DF9300D000D000D0CDB7DEB744
:102D800082E00E94981480917E0590917F050196C3
:102D900090937F0580937E058838934119F481E3F1
:102DA000809321010E945E085C010E94B43A182FB2
:102DB00080917C0590917D05049708F486C080E1A0
:102DC000A81682E0B80609F0E7C06CEB72E0CE010D
:102DD00001960E944835F8E0CF2EE12CF12C02E05C
:102DE0009E012F5F3F4F40E050E065E070E086E9D4
:102DF00090E00E94300FCE0101960E94DA344AE042
:102E000060910B06CE0101960E94AE35CC24C3948E
:102E1000EE24EA94FE2C9E012F5F3F4F40E050E0ED
:102E200065E070E086E990E00E94300FCE010196E7
:102E30000E94DA344AE060910C06CE0101960E94AD
:102E4000AE359E012F5F3F4F40E050E065E070E0FF
:102E500085EA90E00E94300FCE0101960E94DA349C
:102E60004AE060910D06CE0101960E94AE359E01AA
:102E70002F5F3F4F40E050E065E070E084EB90E072
:102E80000E94300FCE0101960E94DA344AE0609130
:102E90000E06CE0101960E94AE359E012F5F3F4F78
:102EA00040E050E065E070E083EC90E00E94300F7D
:102EB000CE0101960E94DA3410927D0510927C05B5
:102EC00010927F0510927E058FC0D12C8FE0982E36
:102ED0001D115DC020917C0530917D05F901E858F8
:102EE000FA4F1083F901E55FF94F80814AE0612FC5
:102EF00018131CC0CE0101960E94AE3520917C05AE
:102F000030917D05929EC001939E900D1124CC249A
:102F1000C39400EEE02E07E0F02E02E09E012F5F4A
:102F20003F4F40E050E065E070E01BC0CE010196ED
:102F30000E94AE3580917C0590917D05989EF001B0
:102F4000999EF00D1124CC24C394E12CB8EFFB2EF4
:102F500002E09E012F5F3F4F40E050E065E070E0EF
:102F6000CF018A569F4F0E94300FCE0101960E94DA
:102F7000DA3420917C0530917D052F5F3F4F3093EF
:102F80007D0520937C0510927F0510927E05D394D9
:102F90002AE0D2129DCF13CF88EEA81682E0B806A1
:102FA00019F59091780580910B0698131DC09091AA
:102FB000790580910C06981317C090917A0580913D
:102FC0000D06981311C090917B0580910E06981301
:102FD0000BC010927D0510927C050E94A70A81E328
:102FE000809321010E94B80726960FB6F894DEBFA1
:102FF0000FBECDBFDF91CF911F910F91FF90EF904A
:10300000DF90CF90BF90AF909F900895CF92EF92B6
:10301000FF920F93CF93DF9300D000D000D0CDB7B5
:10302000DEB741E050E061E070E085E496E00E94A8
:10303000252D90930C0180930B0181E080938E05E8
:103040000E94CF2F60938A0570938B0580938C0527
:1030500090938D0581E796E00E9425239091350697
:10306000891310C06AEB72E0CE0101960E944835C8
:1030700040910B0150910C01C12C30EEE32E37E052
:10308000F32E36C081E796E00E94282381111CC0F0
:103090006AEB72E0CE0101960E94483540910B0127
:1030A00050910C01C12CE12C28EFF22E02E09E0180
:1030B0002F5F3F4F67E271E081EE90E00E94300F9A
:1030C000CE0101960E94DA3481E796E00E9428231F
:1030D0008823E1F06AEB72E0CE0101960E94483548
:1030E00040910B0150910C01C12C9FE1E92EF12C74
:1030F00002E09E012F5F3F4F67E271E081EE90E0BA
:103100000E94300FCE0101960E94DA3426960FB647
:10311000F894DEBF0FBECDBFDF91CF910F91FF902E
:10312000EF90CF900895CF92EF92FF920F931F935D
:10313000CF93DF9300D000D000D0CDB7DEB7882387
:1031400019F00E9406183FC00E94CF2F00918A05F7
:1031500010918B0520918C0530918D05601B710BB2
:10316000820B930B673971058105910560F18091A0
:103170008E05882341F141E050E061E070E085E494
:1031800096E00E94252D90930C0180930B011092E4
:103190008E056AEB72E0CE0101960E94483540919F
:1031A0000B0150910C01C12C7A0102E09E012F5FAE
:1031B0003F4F67E271E081EE90E00E94300FCE0158
:1031C00001960E94DA3480E026960FB6F894DEBFAE
:1031D0000FBECDBFDF91CF911F910F91FF90EF9068
:1031E000CF900895AF92BF92CF92EF92FF920F933C
:1031F0001F93CF93DF9300D000D000D0CDB7DEB7C0
:103200009091200180912101981709F47EC003E07C
:1032100020E038EF40E050E066EF72E08DE60E947B
:10322000DC0AAA24AA9447E0B42E54E0C52E64E038
:10323000E62E63E0F62E00E010E020EA30E040EAFF
:1032400050E068E270E088E290E00E949B08E12C88
:1032500078EFF72E08E210E020EA30E044E650E094
:1032600068E270E085E496E00E94D42B00EA10E06A
:1032700028E230E048E250E064E670E085E496E061
:103280000E94D42BCC24C394E6E6EE2EE1E0FE2E81
:1032900000E010E02AE030E048E250E066E371E050
:1032A00084E690E00E949B0869E073E0CE010196FD
:1032B0000E944835C12CFFE1EF2EF8EFFF2E04E00D
:1032C0009E012F5F3F4F40E050E060EF70E080E0F4
:1032D00090E00E94300FCE0101960E94DA344AE05D
:1032E00060913C06CE0101960E94AE359E012F5F93
:1032F0003F4F40E050E068E171E080E090E00E94E4
:10330000300FCE0101960E94DA3426960FB6F8945B
:10331000DEBF0FBECDBFDF91CF911F910F91FF9008
:10332000EF90CF90BF90AF900895CF93DF9360EE72
:1033300077E085E496E00E948A2CC5E0D0E04091D9
:10334000350663E381E796E00E94B7262197B9F737
:103350008EE680932001DF91CF910C94F218AF920A
:10336000BF92CF92EF92FF920F93CF93DF9300D053
:1033700000D000D0CDB7DEB75C011A141B0434F5C1
:103380004AE0B501CE0101960E94DB35A3E0CA2ECA
:10339000B0EEEB2EFF24FA9404E09E012F5F3F4F26
:1033A00040E058EF69E670E080E090E00E94300F66
:1033B000CE0101960E94DA3468EE73E080E090E07E
:1033C0000E94FE2F81E0A81AB108D7CF60913C0679
:1033D0006F5F60933C0680E090E00E94CB030E9408
:1033E000951926960FB6F894DEBF0FBECDBFDF91BC
:1033F000CF910F91FF90EF90CF90BF90AF90089535
:103400000E94F2180E945E0823E08430920731F493
:1034100080913B0690E00E94AF1906C0865691400D
:1034200019F480E7809321018091880590918905A6
:1034300001969093890580938805883E9340F1F525
:1034400080913A068823D1F180913506813071F45C
:1034500043E450E064E581E796E00E940F2643E6EE
:1034600050E064E581E796E00E940F2680913506E2
:10347000823071F443E250E064E581E796E00E9417
:103480000F2643E650E064E581E796E00E940F26B0
:1034900080913506833071F443E250E064E581E7C2
:1034A00096E00E940F2643E450E064E581E796E051
:1034B0000E940F26109289051092880508950E9497
:1034C000DB2F809121018D3619F40E94001A3BC038
:1034D000803719F40E94981336C0813319F40E9482
:1034E000A40B31C0893619F40E94D90C2CC088363F
:1034F00019F40E94CC0D27C0823719F40E94130FD3
:1035000022C0843619F40E9445101DC0823319F47C
:103510000E94300C18C0883719F40E94F61513C0A9
:10352000893719F40E94B0160EC0883419F40E942D
:10353000761109C0813619F40E94621B04C0811102
:1035400002C00E94620780E00E94931881EC97E01D
:103550000E945E31892B69F081EC97E00E947731FF
:10356000883621F08D3619F0823619F488E480937C
:1035700021010895CF92EF92FF920F93CF93DF93A3
:1035800000D000D000D0CDB7DEB769E870E081ECA4
:1035900097E00E9496334AE050E060911F0181EC71
:1035A00097E00E945F346CE770E081EC97E00E9446
:1035B00096334AE050E060911E0181EC97E00E9452
:1035C00066344AE060911F01CE0101960E94AE353B
:1035D000CC24C394EE24EA94FE2C03E09E012F5FDA
:1035E0003F4F40E050E067E370E083EC90E00E94E2
:1035F000300FCE0101960E94DA340E94B80664E6CC
:1036000070E080E090E00E94FE2F41E050E060E535
:1036100081E796E00E940F260E945F1A40911801F0
:1036200050E064E481E796E00E940F260E945F1A52
:1036300040912E0650E064E481E796E00E940F2658
:103640000E945F1A40912D0650E064E481E796E005
:103650000E940F260E945F1A40E050E063E481E779
:1036600096E00E940F260E94F31226960FB6F89459
:10367000DEBF0FBECDBFDF91CF910F91FF90EF90D6
:10368000CF90089562E173E081EC97E00E94C73328
:103690008091180190E020911B0630911C0628179C
:1036A000390779F480911D0680932E0680911F06BC
:1036B00090912006892B19F081E080931F010C94D2
:1036C000BA1A0895CF92EF92FF920F931F93CF9360
:1036D000DF9300D000D000D0CDB7DEB70E94331208
:1036E0000E945E0822E08437920711F590911D0137
:1036F000992309F4CDC080911F018F5F981708F4BA
:1037000081E080931F014AE060911F01CE01019684
:103710000E94AE35CC24C394EE24EA94FE2C03E040
:103720009E012F5F3F4F40E050E067E370E01DC017
:1037300022E08038920741F580911A018823F1F048
:1037400010921A016BE473E0CE0101960E94483595
:10375000CC24C394EE24EA94FE2C03E09E012F5F58
:103760003F4F40E050E063E770E083EC90E00E9460
:10377000300FCE0101960E94DA3413C081E08093AD
:103780001A0163E272E0E0CF22E08F38920719F469
:103790000E94620706C08656914019F488E480931F
:1037A00021010E94C90681E796E00E9468258823CE
:1037B00009F46EC081E796E00E942223843409F464
:1037C00045C0803521F0833409F062C051C01092A9
:1037D000180661E776E0CE0101960E942B2369E28C
:1037E00073E0CE0101960E940736182FCE01019694
:1037F0000E94DA34112359F0E0911806F0E0EE0F40
:10380000FF1FE75EF94F80E190E09183808361E7DD
:1038100076E0CE0101960E942B236BE373E0CE018C
:1038200001960E940736182FCE0101960E94DA34C5
:10383000112371F1E0911806F0E0EE0FFF1FE75E33
:10384000F94F81E190E09183808322C010911806A6
:103850001F5F1093180681E796E00E943623E12F40
:10386000F0E0EE0FFF1FE75EF94F7183608310C039
:1038700081E796E00E943E23882341F0809119065B
:1038800090911A06409711F40E94421B109218065C
:1038900026960FB6F894DEBF0FBECDBFDF91CF9155
:1038A0001F910F91FF90EF90CF9008952F923F922C
:1038B0004F925F926F927F928F929F92AF92BF9240
:1038C000CF92DF92EF92FF920F931F93CF93DF93EC
:1038D00000D000D0CDB7DEB74C017C836B836A018A
:1038E0005901C8018701AC014C195D0957FF03C09C
:1038F00051954195510995016B817C81261B370BB0
:1039000037FF03C031952195310922242394312CAE
:103910002417350714F0212C312C2114310459F0CF
:103920003A2D2B2D5C01832F922F3B812C81DC8241
:10393000CB82C32ED22EAB81BC81AA16BB065CF40F
:103940003C2D2D2D6C01832F922F3B812C81BC822D
:10395000AB82A32EB22E2501EB81FC814E1A5F0AA9
:103960003C016C187D0877FE03C071946194710866
:10397000720157FE03C0FFEFEF1AFF0AF594E794B8
:10398000C816D9062CF421E030E03A83298324C0FC
:103990006FEF7FEF7A8369831FC0D401ED91FC91B3
:1039A0000480F581E02D980121143104D9F04B8178
:1039B0005C81B601C4010995E618F708F7FE06C058
:1039C000E981FA81CE0EDF1EE40CF51C2B813C81CF
:1039D0002F5F3F4F3C832B836B817C81A616B706FC
:1039E000E4F604C0A6016B817C81E4CF0F900F90B8
:1039F0000F900F90DF91CF911F910F91FF90EF905B
:103A0000DF90CF90BF90AF909F908F907F906F90FE
:103A10005F904F903F902F9008956F927F928F927A
:103A20009F92AF92BF92CF92DF92EF92FF920F934D
:103A30001F93CF93DF93EC015B016A0139014801C9
:103A4000E881F9810284F385E02D87010995E881F9
:103A5000F981A601480D591D415051090284F38591
:103A6000E02D9301B501CE010995E881F98100842B
:103A7000F185E02D9401A601B501CE010995E881FB
:103A8000F981B501660D771D615071090084F185DA
:103A9000E02D9401A601CE010995DF91CF911F91F0
:103AA0000F91FF90EF90DF90CF90BF90AF909F90DD
:103AB0008F907F906F900895EF92FF920F931F93D6
:103AC000DC01ED91FC91240F351F21503109068056
:103AD000F781E02D780189019B0109951F910F91D4
:103AE000FF90EF900895EF92FF920F931F93DC01E8
:103AF000ED91FC91260F371F215031090680F78187
:103B0000E02D78018A0109951F910F91FF90EF90A8
:103B100008956F927F928F929F92AF92BF92CF92B1
:103B2000DF92EF92FF920F931F93CF93DF935C018D
:103B30004A0169013801EB01C60ED71ECC15DD051F
:103B400074F4D501ED91FC910084F185E02D87019D
:103B50009301A401BE01C50109952196EFCFDF9124
:103B6000CF911F910F91FF90EF90DF90CF90BF907A
:103B7000AF909F908F907F906F900895EF92FF92FB
:103B80000F931F93DC01ED91FC9111971A960D9103
:103B90001C911B9718962D913C9119970684F785D7
:103BA000E02D7B0140E050E060E070E009951F915E
:103BB0000F91FF90EF9008950895FC0113821282F7
:103BC00081E593E091838083758364835783468383
:103BD0007187608753874287158A158614861786F2
:103BE000168621E0248B8FEF9FEF938B828B918B36
:103BF000808B268B178A118E108E08952F923F92FC
:103C00004F925F926F927F928F929F92AF92BF92EC
:103C1000CF92DF92EF92FF920F931F93CF93DF9398
:103C2000CDB7DEB728970FB6F894DEBF0FBECDBF75
:103C30005C011B015A83498338872F83FC82EB8206
:103C400088248394912C821A930A39017194619487
:103C50007108660C771C270123E0420E511CEE24EC
:103C6000E394F12C302F31703D8302700E83C70135
:103C70000197EF81F8858E179F070CF07BC097FCAA
:103C80000AC08F819885019798878F8392E0690E8B
:103C9000711C860C971CC201AB81BC818A1B9B0BDB
:103CA000880E991EBD81BB2369F1D501ED91FC9170
:103CB0002F813885220F331F2F5F3F4F8B819C81CF
:103CC000280F391F0084F185E02D860149815A8132
:103CD000AF81B8854A1B5B0BB701620D731DC5012F
:103CE0000995D501ED91FC910084F185E02D9201BB
:103CF00049815A814E195F096F817885620D731D64
:103D0000C5010995BE81BB2371F1D501ED91FC91EF
:103D10002F813885220F331F2F5F3F4F8B819C816E
:103D2000280F391F0084F185E02D860149815A81D1
:103D3000AF81B8854A1B5B0BB1016E197F09C501C4
:103D40000995D501ED91FC910084F185E02D92015A
:103D500049815A814E195F09B1018F819885681B8D
:103D6000790BC50109959FEFE91AF90AA2E04A0EFD
:103D7000511C7DCF28960FB6F894DEBF0FBECDBF85
:103D8000DF91CF911F910F91FF90EF90DF90CF9037
:103D9000BF90AF909F908F907F906F905F904F906B
:103DA0003F902F9008952F923F924F925F926F9283
:103DB0007F928F929F92AF92BF92CF92DF92EF92BB
:103DC000FF920F931F93CF93DF9300D000D000D0CA
:103DD000CDB7DEB75C017A8369833A013C832B83DC
:103DE0004801FE82ED8226016701D194C194D10879
:103DF000CC0CDD1C1B012E0C3F1CD501ED91FC9160
:103E00002C0D3D1D0684F785E02D72018401B10162
:103E1000C50109958C0C9D1CB1E08B1A9108ED81B0
:103E2000FE816E0E7F1E69817A818B819C81680F75
:103E3000791F6E1B7F0B615071096201740101E0F3
:103E40009F01A301C5010E94FE1D02E02D813E815C
:103E5000A301B101C5010E94FE1D26960FB6F8947C
:103E6000DEBF0FBECDBFDF91CF911F910F91FF90AD
:103E7000EF90DF90CF90BF90AF909F908F907F900A
:103E80006F905F904F903F902F9008952F923F92A8
:103E90004F925F926F927F928F929F92AF92BF925A
:103EA000CF92DF92EF92FF920F931F93CF93DF9306
:103EB000CDB7DEB76A970FB6F894DEBF0FBECDBFA1
:103EC0001C0158874F831C870B87FA86E986CC82B2
:103ED000DC0158964D915C9159974115510509F0B7
:103EE000A6C018968D919C911997681779070CF0C8
:103EF00056C11A968D919C911B97EF81F885E81712
:103F0000F9070CF04CC1D12CCB013C81F6E03F9F6E
:103F1000800D911D1124181619060CF040C1C60120
:103F200003E0880F991F0A95E1F74F815885840FA8
:103F3000951F181619060CF032C157968C918111F5
:103F400003C0203B08F02F5F7E876D874B011982ED
:103F50001FECA12E10E0B12EA61AB70A55E0259F3E
:103F6000A00CB11C11248981853039F0ED85FE85C6
:103F7000EA0DFB1D94919A8301C01A826F807884A8
:103F80002301A8E0AD83BA81B0FF12C0D101ED9149
:103F9000FC91BC81B13031F40480F581E02D2B859A
:103FA0003C8518C00684F785E02DEB84FC841DC099
:103FB000E985FA852B853C85E217F307E1F0D1010D
:103FC000ED91FC91BC81B13059F40480F581E02D74
:103FD00029853A85A2016D857E85C10109950BC0B1
:103FE0000684F785E02DE984FA8486019601A30111
:103FF000B401C1010995EA81E695EA83FD81F1509A
:10400000FD836C0C7D1C2FEF421A520AF111BBCFBD
:1040100039813F5F39838C0C9D1C4D855E854F5FD8
:104020005F4F5E874D87363009F09DCFB8C0FA01EB
:1040300034963491329785919491231BA7E02A9F5F
:10404000800D911D1124FA0125913491398B288B13
:10405000FC01459154915A8F498FFC01329654913D
:1040600059873196A491AF873196E491FC0135963A
:10407000249131968491BC81B23050F0622E772425
:1040800067FC7094E82FFF27E7FDF095FE87ED872A
:10409000FC81CF2ED12C6C9C40016D9C900C7C9CA3
:1040A000900C1124860E971EA12C1982DE8ACD8ACF
:1040B000AB01420F511D27FD5A955E834D83AF81A1
:1040C000B885A80FB11D87FDBA95B88FAF8B598100
:1040D0008F85581708F063C0852F90E02D853E85A9
:1040E000280F391F2C9DD0012D9DB00D3C9DB00D8A
:1040F0001124EF81F885EA0FFB1FFB83EA836D80B3
:104100007E802401FA2D2D81F21BFA8B4F89588D68
:10411000480F591F5C8B4B8B9A89960D862D2D81EC
:10412000821B39858317B0F5977061F4898D9A8D5C
:104130000196E889F989298D3A8DE20FF31FB49031
:104140009A8F898FB7FE1DC0D101ED91FC91BC8182
:10415000B13059F40480F581E02D2B853C854B89E5
:104160005C89B301C10109950CC00684F785E02D77
:10417000EB84FC84860196014A815B81B201C10116
:104180000995BB0CED89FE894E0E5F1EFFEF6F1A7D
:104190007F0AC2CFA30E49814F5F498398CF6A96A9
:1041A0000FB6F894DEBF0FBECDBFDF91CF911F9148
:1041B0000F91FF90EF90DF90CF90BF90AF909F90C6
:1041C0008F907F906F905F904F903F902F900895C9
:1041D000AF92BF92CF92EF92FF920F931F93CF9324
:1041E000DF93EC01262F888D998D009709F042C04E
:1041F0006A3069F42C898E859F8538E0239F800D75
:10420000911D11249F878E871D861C86ABC06D3043
:1042100009F4A8C08E898823C1F03C898C859D85CE
:1042200046E0349F800D911D1124488559858417DF
:1042300095075CF01D861C868E859F85E8E03E9F75
:10424000800D911D11249F878E87EA88FB8808893D
:1042500019894E855F856C857D85CC88CE010E944D
:10426000461F2C898C859D85F6E02F9F800D911D22
:10427000112441C06A3079F41D861C864C89FC01EA
:10428000369684912E853F85489F200D311D11243F
:104290003F872E8767C06D3009F464C0AC014C5F66
:1042A0005F4FFA013491631708F45CC03196E491D2
:1042B000E61708F457C0FA014491362F341BFC016D
:1042C0003296A590B490F7E03F9FA00CB11C11244A
:1042D000F5013296A4913196E491AA2311F0E111EF
:1042E0000DC0F5013496A4902C898C859D85A29EE5
:1042F000800D911D11249D878C8734C0F501359662
:10430000E4913E89332309F13C89B0E0AE0FB11D41
:10431000E7FDBA953A9FA0013B9F500D11246C8593
:104320007D85460F571F68857985461757076CF0BE
:104330001D861C86FC01369684914E855F85389FCC
:10434000400D511D11245F874E87EA88FB8808893C
:1043500019894E855F856C857D85CC88CE010E944C
:10436000461FBFCF81E090E0DF91CF911F910F9169
:10437000FF90EF90CF90BF90AF900895FC017587AC
:104380006487578746870895611101C061E0FC0189
:10439000648B0895FC01738B628B718B608B089525
:1043A000FC016370658B8481958126813781613042
:1043B00039F0633029F09187808733872287089509
:1043C00031872087938782870895FC0180859185B6
:1043D0000895FC01828593850895FC01EF54FF4FF9
:1043E0002081DC0134E02302A00DB11D1124A05B6B
:1043F000BF4F2C912081DC0134E02302A00DB11DC0
:104400001124A35BBF4F6C932081DC0134E02302B5
:10441000A00DB11D1124A25BBF4F11965C934E936A
:104420002081DC0134E02302A00DB11D1124A05B2A
:10443000BF4F1C9280818F5F80838081108208959E
:10444000CF93DF93DC01FC01EE54FF4F8081ED013F
:1044500024E08202C00DD11D1124C05BDF4F888192
:1044600081112EC08081ED0194E08902C00DD11D23
:104470001124C35BDF4F88819D968C939D9780812B
:10448000ED0124E08202C00DD11D1124C25BDF4F7B
:10449000888199819F969C938E939E9781E09C96AC
:1044A0008C939C97908124E09202A00DB11D112461
:1044B000A05BBF4F8C9380818F5F8083808110824F
:1044C000DF91CF910895CF93C0E080915E078C1368
:1044D0000AC0EC2FF0E0EE0FFF1FE15AF84F808189
:1044E0009181009729F4CF5FC03179F7CF9108957A
:1044F0000E94A424F8CF1F93CF93DF93182FEB01D2
:1045000041E063E672E20E94CD03E12FF0E0EE0F9E
:10451000FF1FE15AF84FD183C083DF91CF911F91E4
:1045200008951F920F920FB60F9211240F931F93AD
:104530002F933F934F935F936F937F938F939F93AB
:10454000AF93BF93CF93DF93EF93FF93CFE5D7E084
:104550000FEF1FE7E881F9813097D1F080819181D9
:1045600001979183808380819181892B41F411830C
:104570000083838182831382CF010E940125E88119
:10458000F981808191818436910511F41183008332
:10459000229687E0CF37D807E9F6FF91EF91DF91B8
:1045A000CF91BF91AF919F918F917F916F915F91CB
:1045B0004F913F912F911F910F910F900FBE0F9030
:1045C0001F901895CF93DF93EC0169EA72E0C696CD
:1045D0000E94483569EA72E0CE01CC96DF91CF9116
:1045E0000C944835CF93DF93EC01862F6C834D8379
:1045F00061E00E94C43062E08D810E94C4308FEF80
:104600009FE7998388831A821B821CA21DA21FA286
:104610001EA219A618A61BA61AA6FE01EF54FF4F4C
:10462000108231961082319610828FEA87BDEEE6B5
:10463000F0E0808182608083BE018D81DF91CF9127
:104640000C947B22FC0185A50895FC0180A90895A6
:10465000FC0184A90895CF93DF93EC016A5C7F4F3E
:104660000E947535CE01DF91CF9108958E5B9F4FEB
:10467000FC0160817181828193810895885B9F4FE5
:10468000FC0180810895FF920F931F93CF93DF93D6
:10469000F42E21E080E090E0F21628F0880F991FB8
:1046A00081602F5FF9CFEC01C623D72301E010E032
:1046B000FF2019F12FEF2F0DC80102C0880F991F9D
:1046C0002A95E2F79C012C233D23232B19F063ED5F
:1046D00075E002C061ED75E081EC97E00E949633D1
:1046E000FA948F2D837021F7FF2039F06FEC75E07D
:1046F00081EC97E00E949633DBCFDF91CF911F9141
:104700000F91FF900895FC0186A597A5807690E013
:1047100025E0959587952A95E1F780AB86A597A525
:104720008C71869586958F5F81AB86A597A58370E2
:104730008F5F82AB0895FC0186A597A5887190E0F4
:1047400033E0959587953A95E1F780AB86A597A5D7
:104750009695879596958795817084AB26A537A504
:1047600023702F5F22AB882311F081E30DC021302D
:1047700011F480E309C0223011F48AE505C023302A
:1047800011F482E301C083E383AB0895FC01E75B8E
:10479000FF4F1082FC0126A537A525ABE85BFF4F34
:1047A000108232972083203109F47CC050F52730E5
:1047B00009F463C090F4243009F456C038F4223070
:1047C00009F44CC0233009F44CC00895253009F495
:1047D0004EC0263009F44EC008952A3009F456C060
:1047E00038F4283009F44CC0293009F44CC008953D
:1047F0002C3009F451C008F44CC02F3009F44FC0DC
:104800000895203409F460C090F4213209F453C0B3
:1048100038F4213109F449C0203209F449C008951F
:10482000213309F44BC0223309F44BC008952334DB
:1048300009F453C038F4213409F449C0223409F48E
:1048400049C00895203809F44BC0203909F44BC001
:10485000283409F04DC06DE075E047C065E673E0AF
:1048600044C06AE773E041C067E973E03EC064EBAF
:1048700073E03BC06BEC73E038C062EE73E035C0B0
:1048800068EF73E032C06EE074E02FC064E274E061
:104890002CC062E474E029C060E674E026C066E7DC
:1048A00074E023C069E273E020C06BE373E01DC0D5
:1048B00069E874E01AC06CE974E017C06CEA74E04F
:1048C00014C06FEB74E011C06BEC74E00EC067EDC8
:1048D00074E00BC069EE74E008C06BEF74E005C0D3
:1048E0006FE175E002C06CE275E0C6960C947E350F
:1048F0000895FC01E75BFF4F20812F5F2083FC01BF
:1049000046A557A5EE5BFF4F552760E070E040835A
:10491000518362837383FC0126A537A5EA5BFF4FB1
:104920008081820F80830895FC0126A537A5E95B6D
:10493000FF4F2083319730813296321303C081E0DC
:1049400080830895108208950F931F93CF93DF9370
:104950001F92CDB7DEB78C010E94DB2F20917F071D
:1049600030918007AB01421B530B9A014150510912
:10497000433F514028F4F80184A18F5F84A33BC0DA
:1049800049E050E0F80151834083709380076093C1
:104990007F07C9018C509E4F68EE73E00E94263855
:1049A000858169830E9433316981892B09F461957E
:1049B000F80183818C3150F48381843070F0F801E8
:1049C0008381843048F0161664F006C0F80185A192
:1049D0008F5F85A313820FC0F8018381E80FF11D5B
:1049E00005C0F8018381E80FF11D61506783F8016C
:1049F00083818F5F83830F90DF91CF911F910F9100
:104A00000895FC018281863020F440E050E063E7A5
:104A10005CC08085833019F481858A3F21F040E0B5
:104A200050E068E652C08281853140F08285833053
:104A300029F48485811102C060E50AC08281853134
:104A400048F08285833031F48485813019F463E441
:104A500025E117C08281833118F08285833031F1DE
:104A60008281813118F08285833031F182818D30ED
:104A700048F18285863031F582818F3018F562E405
:104A80002DE085E090E040E050E030E02817390765
:104A9000E4F0440F551FDF01A80FB91F17967C9152
:104AA000470F511D77FD5A950296F0CF82818531CF
:104AB000B8F664E423E1E5CF82818331B8F664E59A
:104AC00021E1DFCF40E050E064E7CF010C94ED211D
:104AD0001F93CF93DF93EC01DC01AD54BF4F8C915A
:104AE000882389F080E090E021E0FC017496EE0FCD
:104AF000FF1FEE0FFF1FEC0FFD1F20830196893172
:104B0000910599F71C92CE010E9420221CA5112329
:104B100009F443C08DA5843521F4CE010E9483237E
:104B20003BC08DA5823421F4CE010E949B2334C06A
:104B30008DA5803521F4CE010E94C6232DC08DA500
:104B4000843421F4CE010E94792426C08DA58334BB
:104B500021F4CE010E9494241FC08DA5833739F41F
:104B60002EA13FA12F5F3F4F3FA32EA313C08DA5C2
:104B7000843739F428A539A52F5F3F4F39A728A7D7
:104B800009C08DA5883641F42AA53BA52F5F3F4F6C
:104B90003BA72AA788E58DA71CA6812FDF91CF917F
:104BA0001F910895CF92DF92EF92FF92CF93DF9300
:104BB000EC01F62E0E94DB2F28EE33E0F29E60011E
:104BC000F39ED00C1124EE24D7FCE094FE2C28E1B7
:104BD000C21AD108E108F108C60ED71EE81EF91E58
:104BE0000E94DB2F6C157D058E059F0588F461E022
:104BF0008C810E94FD308CE090E00E94383060E0B3
:104C00008C810E94FD308CE090E00E943830E8CF2B
:104C1000DF91CF91FF90EF90DF90CF900895CF92EA
:104C2000DF92EF92FF920F931F93CF93DF9300D009
:104C3000CDB7DEB76C018A016434D1F1B4F46234CB
:104C400009F450C0633409F05DC0FC0103A110E019
:104C500063E00E94D22580E797E10E94383063E04C
:104C6000C6010E94D225116038C0603599F06435C4
:104C700009F048C063E00E94D22580E797E10E94D6
:104C8000383063E0C6010E94D22525E030E087E09D
:104C900090E03CC0FC0143A363E00E94D22580E782
:104CA00097E10E94383063E0C6010E94D22515C00A
:104CB000FC0183A1840F83A363E0C6010E94D22577
:104CC00080E797E10E94383063E0C6010E94D22558
:104CD00029E130E088E090E019C029E130E089E086
:104CE00090E014C063E00E94D22580E797E10E9423
:104CF000383066E0C6010E94D22529E130E085E027
:104D000090E004C029E130E080E090E07C01F1E037
:104D1000EF1AF1088FEFE816F806C1F080ED97E082
:104D200029833A830E943830B8010E2C02C0769550
:104D300067950A94E2F761706F5FC6010E94D22501
:104D400041E0E41AF1083A812981E4CFB9018827CA
:104D500077FD8095982F0F900F90DF91CF911F9145
:104D60000F91FF90EF90DF90CF900C94FE2F443086
:104D700060F470E028E0429F600D711D1124AB01CA
:104D800062E40E940F2681E0089580E00895CF93A9
:104D9000DF93EC01EB8DFC8D80819BA1892B8083BF
:104DA000EF8DF8A180819DA1892B8083E9A1FAA1D3
:104DB00080819EA1892B80838BA5882369F060E088
:104DC0000E94FD3062E070E080E090E00E94FE2FE3
:104DD00061E08BA50E94FD30EB8DFC8D80819FA151
:104DE00089238083ED8DFE8D808198A58923808322
:104DF0008BB183708BB985B18C7F85B9EF8DF8A1AC
:104E0000808199A589238083EF8DF8A180819DA160
:104E1000892B808383E0EF8DF8A1908129A59223CF
:104E20009083EF8DF8A190812DA1922B90838150DA
:104E300091F7EB8DFC8D80819BA1892B8083DF9185
:104E4000CF910895CF92DF92EF92FF920F931F932D
:104E5000CF93DF93FC01A38DB48D8C9197A189230F
:104E60008C93A58DB68D8C9190A589238C938BB155
:104E700083708BB985B18C7F85B9A78DB0A18C91DA
:104E800091A589238C93A78DB0A18C9195A1892B95
:104E90008C938BB1837080628BB985B18C7F82607B
:104EA00085B9A78DB0A18C9191A589238C93A78DED
:104EB000B0A18C9195A1892B8C93A58DB68D8C91E9
:104EC00094A1892B8C938BB1C72FCC7F83708C2BB3
:104ED0008BB985B1D72FD3708C7F8D2B85B9A78DDA
:104EE000B0A18C9191A589238C93A78DB0A18C91B1
:104EF00095A1892B8C938BB1162F1C7F8370812BEE
:104F00008BB985B1062F03708C7F802B85B9A78D57
:104F1000B0A18C9191A589238C93A78DB0A18C9180
:104F200095A1892B8C9321503109410951096901BF
:104F30007A0186E0F694E794D794C7948A95D1F7DE
:104F400080E090E0761339C1C816D90609F466C02E
:104F500060E1A78DB0A17C91C1A57C237C93A78D36
:104F6000B0A17C91C5A17C2B7C93A78DB0A17C9135
:104F7000C1A57C237C93A78DB0A17C91C5A17C2B7E
:104F80007C93A78DB0A17C91C1A57C237C93A78D38
:104F9000B0A17C91C5A17C2B7C93A78DB0A17C9105
:104FA000C1A57C237C93A78DB0A17C91C5A17C2B4E
:104FB0007C93A78DB0A17C91C1A57C237C93A78D08
:104FC000B0A17C91C5A17C2B7C93A78DB0A17C91D5
:104FD000C1A57C237C93A78DB0A17C91C5A17C2B1E
:104FE0007C93A78DB0A17C91C1A57C237C93A78DD8
:104FF000B0A17C91C5A17C2B7C93A78DB0A17C91A5
:10500000C1A57C237C93A78DB0A17C91C5A17C2BED
:105010007C93615009F09DCF019696CF2F7321505C
:10502000C8F0A78DB0A18C9191A589238C93A78DF1
:10503000B0A18C9195A1892B8C93A78DB0A18C9157
:1050400091A589238C93A78DB0A18C9195A1892BD3
:105050008C93E5CFA38DB48D8C9193A1892B8C93E8
:10506000DF91CF911F910F91FF90EF90DF90CF9044
:1050700008957BB173707C2B7BB975B17C7F7D2BE0
:1050800075B9A78DB0A17C91F1A47F217C93A78DE8
:10509000B0A17C91F5A07F297C937BB17370712BBB
:1050A0007BB975B17C7F702B75B9A78DB0A17C9150
:1050B000F1A47F217C93A78DB0A17C91F5A07F29DD
:1050C0007C937BB173707C2B7BB975B17C7F7D2B1E
:1050D00075B9A78DB0A17C91F1A47F217C93A78D98
:1050E000B0A17C91F5A07F297C937BB17370712B6B
:1050F0007BB975B17C7F702B75B9A78DB0A17C9100
:10510000F1A47F217C93A78DB0A17C91F5A07F298C
:105110007C937BB173707C2B7BB975B17C7F7D2BCD
:1051200075B9A78DB0A17C91F1A47F217C93A78D47
:10513000B0A17C91F5A07F297C937BB17370712B1A
:105140007BB975B17C7F702B75B9A78DB0A17C91AF
:10515000F1A47F217C93A78DB0A17C91F5A07F293C
:105160007C937BB173707C2B7BB975B17C7F7D2B7D
:1051700075B9A78DB0A17C91F1A47F217C93A78DF7
:10518000B0A17C91F5A07F297C937BB17370712BCA
:105190007BB975B17C7F702B75B9A78DB0A17C915F
:1051A000F1A47F217C93A78DB0A17C91F5A07F29EC
:1051B0007C93615009F05DCF0196C816D90611F0B5
:1051C00060E157CF2F73215008F444CF8BB1837027
:1051D0008C2B8BB985B18C7F8D2B85B9A78DB0A118
:1051E0008C9191A589238C93A78DB0A18C9195A1C9
:1051F000892B8C938BB18370812B8BB985B18C7F7C
:10520000802B85B9A78DB0A18C9191A589238C9312
:10521000A78DB0A18C9195A1892B8C93D4CFCF93DE
:10522000DF93EC010E94D021EB8DFC8D80819FA14A
:1052300089238083DF91CF910895FC01A1A1B2A1C0
:105240008C9192A589238C9300C000C000C00000FF
:1052500089B193B1A1A1B2A12C9136A1232B2C939A
:1052600093708C7F892B08958AB18C6F8AB984B131
:10527000836084B90895CF93DF93EC010E943429B1
:105280001D8A1D861C861F861E8681E08C8B8FEFF3
:105290009FEF998B888B80EF90E09987888780E4D7
:1052A00091E09B878A87DF91CF910895CF93DF9319
:1052B000EC0140E451E060EF70E00E94DD1D88E405
:1052C00095E09983888382E18BA7E6E1F7E0E4919A
:1052D000F0E0EE0FFF1FED5DF84FA591B491BC8F8C
:1052E000AB8FE5E1F7E0E491F0E0EE0FFF1FED5D3D
:1052F000F84F859194919E8F8D8FE4E1F7E0E491D2
:10530000F0E0EE0FFF1FED5DF84F8591949198A3AB
:105310008F8FE3E1F7E0E491F0E0EE0FFF1FED5D2A
:10532000F84F859194919AA389A3E2E0F7E0E49184
:10533000EBA3E1E0F7E0E491ECA3E0E0F7E0E49137
:10534000EDA3EFEFF6E0E491EEA39BA1892F80950A
:105350008FA38CA1809588A78DA1809589A7E095C2
:10536000EAA78C91892B8C93ED8DFE8D80819CA179
:10537000892B8083EF8DF8A180819DA1892B80836B
:10538000E9A1FAA180819EA1892B808361E081E15E
:105390000E94C43061E080E10E94C43061E08FE08F
:1053A0000E94C43061E08EE00E94C43061E082E17E
:1053B0000E94FD3061E082E10E94C430CE01DF91A5
:1053C000CF910C943B298AB183708AB984B18C7FC8
:1053D00084B908950F931F93CF93DF93EC01EB8D66
:1053E000FC8D80819FA189238083ED8DFE8D80813E
:1053F00098A5892380838BB183708BB985B18C7F0D
:1054000085B9EF8DF8A1808199A589238083EF8DDF
:10541000F8A180819DA1892B8083EF8DF8A18081E7
:1054200099A589238083EF8DF8A180819DA1892B87
:105430008083CE010E94E329ED8DFE8D80819CA1A9
:10544000892B8083CE010E941D29182FCE010E9436
:105450001D29082FCE010E943429EB8DFC8D9081EF
:105460008BA1982B9083802F90E0912BDF91CF918F
:105470001F910F910895FC01A58DB68D8C9190A57B
:1054800089238C939BB1872F8C7F9370892B8BB949
:1054900085B173708C7F782B75B9A78DB0A18C9175
:1054A00091A589238C93A78DB0A18C9195A1892B6F
:1054B0008C939BB1862F8C7F9370892B8BB985B190
:1054C00063708C7F682B65B9A78DB0A18C9191A575
:1054D00089238C93A78DB0A18C9195A1892B8C9356
:1054E000A58DB68D8C9194A1892B8C939BB1852F22
:1054F0008C7F9370892B8BB985B153708C7F582B1F
:1055000055B9A78DB0A18C9191A589238C93A78DB6
:10551000B0A18C9195A1892B8C939BB1842F8C7F0A
:105520009370892B8BB985B143708C7F482B45B91B
:10553000A78DB0A18C9191A589238C93A78DB0A143
:105540008C9195A1892B8C9308958F929F92AF9205
:10555000BF92CF92DF92EF92FF920F931F93CF9360
:10556000DF93EC017A016901EB8DFC8D80819FA1B5
:10557000892380838D89823089F0833021F18130C5
:1055800081F58FEE90E09C01201B310B5B014C01FB
:10559000841A950A860164017B0113C08FEE90E0A6
:1055A0009C012C193D096C01C61AD70A8FE391E0C2
:1055B000AC01401B510B8C010E191F09580146010B
:1055C0007A01B90110C08FE391E09C012C193D09CB
:1055D0005C01A61AB70A4A0168018501B701790181
:1055E00002C05A014B01AB0160E570E0CE010E94A0
:1055F0003B2AA60161E570E0CE010E943B2AA7018B
:1056000062E570E0CE010E943B2AA80163E570E0EC
:10561000CE010E943B2AA40160E270E0CE010E940C
:105620003B2AA50161E270E0CE010E943B2AEB8D8E
:10563000FC8D80819BA1892B8083DF91CF911F916D
:105640000F91FF90EF90DF90CF90BF90AF909F9021
:105650008F900895CF92DF92EF92FF920F931F9356
:10566000CF93DF93EC016901780112161306F4F56C
:1056700057FD3CC08A859B8548175907BCF588852E
:1056800099856817790794F5FB01E20FF31F9F01D5
:105690002150310937FD2AC077FF03C06F0160E058
:1056A00070E02817390734F09C01215031096C0152
:1056B000C61AD70A8A01CE010E94A52A960144275C
:1056C00037FD4095542FB701CE010E9422270A854D
:1056D0001B8501501109288539852150310940E089
:1056E00050E060E070E0CE010E94A52ADF91CF91EA
:1056F0001F910F91FF90EF90DF90CF900895CF9280
:10570000DF92EF92FF920F931F93CF93DF93EC0101
:105710006901780112161306F4F577FD3CC08885FF
:10572000998568177907BCF58A859B8548175907BD
:1057300094F59A012C0D3D1D89010150110917FDA9
:105740002AC057FF03C0690140E050E0081719075D
:1057500034F08C01015011096C01C41AD50A9B0167
:10576000CE010E94A52A9601442737FD4095542F6B
:10577000B701CE010E9422270A851B85015011091D
:10578000288539852150310940E050E060E070E023
:10579000CE010E94A52ADF91CF911F910F91FF901A
:1057A000EF90DF90CF9008958F929F92AF92BF922B
:1057B000CF92DF92EF92FF920F931F93CF93DF93DD
:1057C000EC01590168014701121613060CF058C08C
:1057D000101611060CF054C0888599856817790752
:1057E0000CF04EC0EA84FB844E155F050CF048C0F7
:1057F000FB01E20FF31F9F012150310937FD40C02B
:10580000DA01A00FB11F8D010150110917FD38C039
:1058100077FF03C05F0160E070E057FF03C06D01D8
:1058200040E050E02817390734F09C01215031093D
:105830005C01A61AB70A0E151F0534F08701015046
:1058400011096701C41AD50ACE010E94A52A960142
:10585000D5010E947B389B01AC01B401CE010E94AE
:1058600022270A851B850150110928853985215079
:10587000310940E050E060E070E0CE010E94A52ACE
:10588000DF91CF911F910F91FF90EF90DF90CF901C
:10589000BF90AF909F908F9008950F931F93CF93D9
:1058A000DF93EC010E94C726EB8DFC8D80819FA1C8
:1058B0008923808305ED15E0F80185919491F80125
:1058C0003296459154918F3F910531F4BA0180E0B1
:1058D00090E00E94FE2F04C0BC01CE010E943B2A32
:1058E0000C5F1F4F86E00D3D180731F76D89CE0123
:1058F0000E940F290FE311E02FEE30E040E050E06E
:1059000060E070E0CE010E94A52ADF91CF911F9147
:105910000F910895EF92FF920F931F93CF93DF9310
:10592000EC017B01ED89E150E33068F4F0E0DF0148
:10593000AF5BBA4F4C9150E0EE0FFF1FE55CFA4FA2
:105940000081118104C000E010E040E050E0EB8DE8
:10595000FC8D80819FA18923808360E270E0CE016D
:105960000E943B2AA80161E270E0CE010E943B2A1E
:1059700020E03CE241E050E0B701CE01DF91CF9161
:105980001F910F91FF90EF900C942227EF92FF92BE
:105990000F931F93CF93DF93EC018A01790177FD79
:1059A0004DC057FD4BC088859985681779070CF065
:1059B00045C08A859B85481759070CF03FC0EB8D81
:1059C000FC8D80819FA1892380838D89823059F04D
:1059D0008330B1F08130D1F48FEE90E0841B950BD1
:1059E0008B01BC0113C08FEE90E09C01261B370B8E
:1059F000B9018FE391E09C01241B350B890106C09E
:105A00008FE391E0861B970BBA018C01AB0160E23A
:105A100070E0CE010E943B2AA80161E270E0CE0155
:105A20000E943B2AA70162E270E0CE010E943B2A5D
:105A3000EB8DFC8D80819BA1892B8083DF91CF91A1
:105A40001F910F91FF90EF900895FF920F931F9376
:105A5000CF93DF93EC018A0177FD95C057FD93C08A
:105A600088859985681779070CF08DC08A859B8594
:105A7000481759070CF087C0EB8DFC8D80819FA1E2
:105A8000892380838D89823059F08330B1F0813051
:105A9000D1F48FEE90E0841B950B8B01BC0113C0F9
:105AA0008FEE90E09C01261B370BB9018FE391E04C
:105AB0009C01241B350B890106C08FE391E0861BF6
:105AC000970BBA018C01AB0160E270E0CE010E943D
:105AD0003B2AA80161E270E0CE010E943B2A12E05D
