:100000000C9456040C9453050C947D050C94A70590
:100010000C9436060C94C5060C947E040C947E0455
:100020000C947E040C947E040C947E040C947E0448
:100030000C947E040C947E040C941E210C947E047B
:100040000C94AD2D0C947E040C94CB300C94FD30AC
:100050000C947E040C947E040C947E040C947E0418
:100060000C947E040C947E040A436F756E74446F86
:10007000776E203A2000203A20506C61796572201A
:100080002D20000A41737369676E5465616D202DE0
:1000900020004C434420647269766572203A200047
:1000A0000A4865726520776520676F20626F7973F3
:1000B0002E2E2E2E00206D6573736167652F7320C1
:1000C0006D69737365640A000A0A536F727279204E
:1000D00062757420746865206D61696E206C6F6F45
:1000E0007020697320746F6F20736C6F77202D20E0
:1000F000000A09090942616420495220646174615F
:10010000000A09092D2D2D2D2D2D2D2D2D2D2D2DB7
:100110002D2D2D2D2D2D0A004241442021004F4B25
:100120002E000A0909436865636B53756D202D2005
:10013000000A09090944617461202D2030780020EB
:100140002D20000A09095061636B657431202D2050
:100150003078000A09092D2D2D2D2D2D2D2D2D2D19
:100160002D2D2D2D2D2D2D2D005465616D494420F3
:10017000233A20004E65757472616C000A092020D4
:100180002020537570706C79205A6F6E652042651F
:1001900061636F6E202D20000A09202020436F6EBE
:1001A000746573746564205A6F6E65000A092020B7
:1001B0005A6F6E6520426561636F6E000954616716
:1001C000537472656E6774683A20005465616D49B6
:1001D0004420233A20000A0920486974205265739C
:1001E000706F6E736520426561636F6E202D200015
:1001F0005465616D494420233A20000A0949464666
:1002000020426561636F6E202D20000953686F7472
:10021000537472656E6774683A200009506C617996
:10022000657220233A20000A546167202D200000C7
:100230000102030405060700010203040500010290
:1002400003040500000000003E5B4F5B3E3E6B4F29
:100250006B3E1C3E7C3E1C183C7E3C181C577D5758
:100260001C1C5E7F5E1C00183C1800FFE7C3E7FF04
:100270000018241800FFE7DBE7FF30483A060E2697
:1002800029792926407F050507407F05253F5A3CEF
:10029000E73C5A7F3E1C1C08081C1C3E7F14227F32
:1002A00022145F5F005F5F06097F017F006689950A
:1002B0006A606060606094A2FFA29408047E0408F3
:1002C00010207E201008082A1C08081C2A08081E76
:1002D000101010100C1E0C1E0C30383E3830060E5C
:1002E0003E0E06000000000000005F000000070056
:1002F0000700147F147F14242A7F2A122313086412
:100300006236495620500008070300001C224100B5
:100310000041221C002A1C7F1C2A08083E080800F5
:100320008070300008080808080000606000201095
:100330000804023E5149453E00427F40007249494F
:1003400049462141494D331814127F102745454530
:10035000393C4A4949314121110907364949493651
:10036000464949291E0000140000004034000000E6
:100370000814224114141414140041221408020118
:100380005909063E415D594E7C1211127C7F494944
:1003900049363E414141227F4141413E7F494949E1
:1003A000417F090909013E414151737F0808087FD7
:1003B00000417F41002040413F017F081422417FDE
:1003C000404040407F021C027F7F0408107F3E4176
:1003D00041413E7F090909063E4151215E7F0919CD
:1003E0002946264949493203017F01033F404040E5
:1003F0003F1F2040201F3F4038403F6314081463D4
:1004000003047804036159494D43007F414141028F
:1004100004081020004141417F04020102044040D1
:10042000404040000307080020545478407F28448F
:1004300044383844444428384444287F3854545479
:100440001800087E090218A4A49C787F0804047888
:1004500000447D40002040403D007F1028440000C3
:10046000417F40007C047804787C08040478384498
:10047000444438FC1824241818242418FC7C08044C
:100480000408485454542404043F44243C4040206D
:100490007C1C2040201C3C4030403C442810284418
:1004A0004C9090907C4464544C44000836410000C9
:1004B00000770000004136080002010204023C26D9
:1004C00023263C1EA1A161123A4040207A385454A0
:1004D0005559215555794122545478422155547823
:1004E0004020545579400C1E5272123955555559B9
:1004F000395454545939555454580000457C4100DE
:1005000002457D420001457C407D1211127DF0289C
:100510002528F07C545545002054547C547C0A090D
:100520007F4932494949323A4444443A324A484878
:10053000303A4141217A3A42402078009DA0A07D86
:100540003D4242423D3D4040403D3C24FF24244842
:100550007E4943662B2FFC2F2BFF0929F620C088EC
:100560007E090320545479410000447D41304848BD
:100570004A32384040227A007A0A0A727D0D1931D7
:100580007D2629292F28262929292630484D402033
:10059000380808080808080808382F10C8ACBA2F0F
:1005A000102834FA00007B000008142A14222214B8
:1005B0002A14085500550055AA55AA55AAFF55FFFB
:1005C00055FF000000FF00101010FF00141414FF6E
:1005D000001010FF00FF1010F010F0141414FC00B5
:1005E0001414F700FF0000FF00FF1414F404FC14BF
:1005F0001417101F10101F101F1414141F001010B8
:1006000010F0000000001F101010101F101010102C
:10061000F010000000FF101010101010101010FF4C
:1006200010000000FF140000FF00FF00001F101763
:100630000000FC04F414141710171414F404F4004C
:1006400000FF00F714141414141414F700F7141412
:1006500014171410101F101F141414F4141010F099
:1006600010F000001F101F0000001F14000000FC0D
:10067000140000F010F01010FF10FF141414FF14F9
:100680001010101F00000000F010FFFFFFFFFFF030
:10069000F0F0F0F0FFFFFF0000000000FFFF0F0F81
:1006A0000F0F0F3844443844FC4A4A4A347E020251
:1006B0000606027E027E0263554941633844443C8B
:1006C00004407E201E2006027E020299A5E7A5991D
:1006D0001C2A492A1C4C7201724C304A4D4D303054
:1006E00048784830BC625A463D3E494949007E013F
:1006F00001017E2A2A2A2A2A44445F444440514A5E
:10070000444040444A51400000FF0103E080FF00A4
:100710000008086B6B083612362436060F090F06E0
:10072000000018180000001010003040FF01010008
:100730001F01011E00191D1712003C3C3C3C00002B
:100740000000000100000102000007030030100853
:10075000000203090000000A0008001000900711C1
:1007600000050012000000130000001000B012117C
:1007700000070012008C001300001729002200302F
:100780000000003100050532000502350006023682
:100790000008043700000038000405390006023C58
:1007A0000006023D000804500000005100EF005216
:1007B00000000053003F01600000A76100010090AD
:1007C00000330007003301010000010200000703AD
:1007D00000301008000203090000000A00080010A1
:1007E0000090071100050012000000130000001027
:1007F00000B0121100070012008C0013000017292E
:1008000000220030000000310005053200050235ED
:1008100000060236000804370000003800040539DD
:100820000006023C0006023D000804500000005192
:1008300000EF005200000053003F01600000A7617C
:1008400000010090003300070033010000000800A1
:100850000201000003040700000000000000000186
:100860000204081020408001020408102001020444
:100870000810200404040404040404020202020216
:1008800002030303030303000000002300260029E2
:100890000000000000250028002B000000000024BC
:1008A0000027002A0000C3092D31390A11241FBE78
:1008B000CFEFD8E0DEBFCDBF15E0A0E0B1E0EAE3C6
:1008C000F4E702C005900D92AC32B107D9F727E0EA
:1008D000ACE2B5E001C01D92A23DB207E1F718E01D
:1008E000CAEAD8E004C02297FE010E943F37C63A08
:1008F000D107C9F70E9471310C94103A0C94000092
:100900000C94B3390C94BB39A82FAF7787FD05C081
:100910008EEF8A0F823008F499C0B0E0FD01E15AF1
:10092000F74F2491FD01ED58F74F8491942F9D7F4F
:100930009130B9F4823031F49091D506922B909396
:10094000D5060FC0833031F49091D206922B90934C
:10095000D20607C0843029F49091CF06922B909351
:10096000CF0641504230B8F4823031F49091D40631
:10097000922B9093D4060FC0833031F49091D1061E
:10098000922B9093D10607C0843029F49091CE0623
:10099000922B9093CE06FD01E15DFD4FA491823034
:1009A000C1F4B0E0AA0FBB1FAE50B94F6D937C935A
:1009B000EBE8F8E0A591B4918C918093D3068BE697
:1009C00090E0909303078093020780916800816014
:1009D00033C08330C1F4B0E0AA0FBB1FAA51B94F96
:1009E0006D937C93EDE8F8E0A591B4918C918093A0
:1009F000D0068CE690E090930307809302078091E5
:100A00006800826019C08430C9F4B0E0AA0FBB1F2F
:100A1000AA52B94F6D937C93EFE8F8E0A591B49199
:100A20008C918093CD068DE690E0909303078093A0
:100A3000020780916800846080936800A09102079B
:100A4000B09103078C91822B8C9308959FB7F894F3
:100A5000A23099F47093FF066093FE06E8988091A7
:100A600069008C7F8093690080916900842B80935A
:100A70006900E09AE89A9FBF089570930107609318
:100A80000007E99880916900837F809369008091D5
:100A9000690024E0429FA0011124842B8093690007
:100AA000E19AE99AE8CF1F920F920FB60F921124A4
:100AB0002F933F934F935F936F937F938F939F9366
:100AC000AF93BF93EF93FF9382E080930507E0918C
:100AD000FE06F091FF060995FF91EF91BF91AF914E
:100AE0009F918F917F916F915F914F913F912F9146
:100AF0000F900FBE0F901F9018951F920F920FB678
:100B00000F9211242F933F934F935F936F937F9393
:100B10008F939F93AF93BF93EF93FF9383E0809363
:100B20000507E0910007F09101070995FF91EF910A
:100B3000BF91AF919F918F917F916F915F914F91F5
:100B40003F912F910F900FBE0F901F9018951F92FD
:100B50000F920FB60F9211242F933F934F935F93F1
:100B60006F937F938F939F93AF93BF93CF93DF93B5
:100B7000EF93FF93D3B1C091D3069091D506209106
:100B8000D4068D2F809582239D23892B90916B0015
:100B9000CD27C923C823D093D306CC2309F453C04F
:100BA000C0FF0CC088E0809305078D2F8170809373
:100BB0000407E091F206F091F3060995C1FF0CC01D
:100BC00089E0809305078D2F827080930407E09160
:100BD000F406F091F5060995C2FF0CC08AE08093F7
:100BE00005078D2F847080930407E091F606F0913D
:100BF000F7060995C3FF0CC08BE0809305078D2F86
:100C0000887080930407E091F806F091F906099541
:100C1000C4FF0CC08CE0809305078D2F80718093FA
:100C20000407E091FA06F091FB060995C5FF0BC099
:100C30008DE080930507D072D0930407E091FC0605
:100C4000F091FD060995FF91EF91DF91CF91BF9152
:100C5000AF919F918F917F916F915F914F913F9154
:100C60002F910F900FBE0F901F9018951F920F920B
:100C70000FB60F9211242F933F934F935F936F936F
:100C80007F938F939F93AF93BF93CF93DF93EF9314
:100C9000FF93D6B1C091D0069091D2062091D10693
:100CA0008D2F809582239D23892B90916C00CD27D9
:100CB000C923C823D093D006CC2309F453C0C0FF66
:100CC0000CC08EE0809305078D2F81708093040700
:100CD000E091E606F091E7060995C1FF0CC08FE0B0
:100CE000809305078D2F827080930407E091E806BA
:100CF000F091E9060995C2FF0CC080E180930507D9
:100D00008D2F847080930407E091EA06F091EB0642
:100D10000995C3FF0CC081E1809305078D2F887072
:100D200080930407E091EC06F091ED060995C4FF6D
:100D30000CC082E1809305078D2F8071809304079A
:100D4000E091EE06F091EF060995C5FF0BC083E137
:100D500080930507D072D0930407E091F006F091DC
:100D6000F1060995FF91EF91DF91CF91BF91AF917E
:100D70009F918F917F916F915F914F913F912F91B3
:100D80000F900FBE0F901F9018951F920F920FB6E5
:100D90000F9211242F933F934F935F936F937F9301
:100DA0008F939F93AF93BF93CF93DF93EF93FF9373
:100DB000D9B1C091CD069091CF062091CE068D2F4E
:100DC000809582239D23892B90916D00CD27C92387
:100DD000C823D093CD06CC2309F46EC0C0FF0BC04E
:100DE000109205078D2F817080930407E091D6063D
:100DF000F091D7060995C1FF0CC081E080930507EB
:100E00008D2F827080930407E091D806F091D90667
:100E10000995C2FF0CC082E0809305078D2F847076
:100E200080930407E091DA06F091DB060995C3FF91
:100E30000CC083E0809305078D2F88708093040792
:100E4000E091DC06F091DD060995C4FF0CC084E05A
:100E5000809305078D2F807180930407E091DE0653
:100E6000F091DF060995C5FF0CC085E0809305076A
:100E70008D2F807280930407E091E006F091E106E7
:100E80000995C6FF0CC086E0809305078D2F8074FE
:100E900080930407E091E206F091E3060995C7FF0D
:100EA0000BC087E080930507D078D0930407E091CA
:100EB000E406F091E5060995FF91EF91DF91CF915E
:100EC000BF91AF919F918F917F916F915F914F9162
:100ED0003F912F910F900FBE0F901F90189580910A
:100EE0001F0181509091200128E0929F800D1124D4
:100EF00080931E0108950F931F930E94F72D009178
:100F0000BB051091BC052091BD053091BE05601B4D
:100F1000710B820B930B6D3D75408105910508F4B3
:100F20007AC04091180150E060E588E196E00E94A7
:100F300072244091170150E064E488E196E00E9439
:100F400072244091160150E064E488E196E00E942A
:100F500072244091150150E064E488E196E00E941B
:100F600072244091140150E064E488E196E00E940C
:100F700072244091130150E064E488E196E00E94FD
:100F800072244091120150E064E488E196E00E94EE
:100F900072244091110150E064E488E196E00E94DF
:100FA00072244091100150E064E488E196E00E94D0
:100FB000722440910F0150E064E488E196E00E94C1
:100FC000722440910E0150E064E488E196E00E94B2
:100FD000722440910D0150E064E488E196E00E94A3
:100FE000722440910C0150E064E488E196E00E9494
:100FF00072244091BF0550E063E488E196E00E94CE
:1010000072240E94F72D6093BB057093BC058093FA
:10101000BD059093BE051F910F9108958F3F51F02C
:101020006AE00E949F36292F30E1839FC00111247E
:10103000822B08958FEF08958FEF8093B7058093EB
:10104000B3058093B8058093B4058093B905809368
:10105000B5058093BA058093B60508954F925F92C7
:101060006F927F929F92AF92BF92CF92DF92EF9258
:10107000FF920F931F93CF93DF9300D000D000D047
:10108000CDB7DEB7982E84EE95E00E941E2C298302
:101090003A834B835C836D837E8361E080E10E94B1
:1010A000EC2E61E08FE00E94EC2E8CEE95E00E9429
:1010B0006C209C0149805A80B201882777FD809579
:1010C000982F2901662457FC6094762C7F926F92AA
:1010D0005F924F92A12CB12C65011AE5E12EF12C03
:1010E00000E010E023EB33E040E050E00E940C33DE
:1010F0007093B2056093B1058CEE95E00E9470206C
:10110000AC014B805C80B201882777FD8095982FD9
:101110002A01662457FC6094762C7F926F925F922E
:101120004F9219E8E12EF12C00E010E02EEB33E0B5
:1011300040E050E00E940C337093B0056093AF051F
:101140000FB6F894DEBF0FBECDBF8D819E810B9789
:1011500014F099249394892D26960FB6F894DEBF47
:101160000FBECDBFDF91CF911F910F91FF90EF90F8
:10117000DF90CF90BF90AF909F907F906F905F90E7
:101180004F90089580E00E942E088823A1F168EC1A
:1011900070E080E090E00E94262E2091B105309111
:1011A000B2054091AF055091B005EFE4F5E080E065
:1011B00090E06081718162177307BCF4648175816E
:1011C0002617370794F462817381641775076CF4EE
:1011D000668177814617570744F4FC01EE0FFF1F25
:1011E000E95CFA4F2081318108C0019638968C3035
:1011F0009105F9F6089524E231E0C90108952F928E
:101200003F924F925F926F927F928F929F92AF9296
:10121000BF92CF92DF92EF92FF920F931F93CF93E3
:10122000DF9300D01F92CDB7DEB79B838A834B013B
:101230001A0129013701C9826801BAE0EB2EF12CAD
:1012400089019A01AB01BC018CEE95E00E945A1D08
:10125000B5018CEE95E00E94512069818CEE95E0FD
:101260000E944B20F30101900020E9F73197E61925
:10127000F709398127E0329FC001112495958795A0
:10128000A401481B590BC20196958795480F591F19
:10129000B101769567958A819B81680F791F9F01BF
:1012A00021503109A5E0AE9FC001AF9F900D1124E0
:1012B000280F391FA981A29FC001A39F900D11245F
:1012C00096958795681B790B8CEE95E00E944520DA
:1012D000B3018CEE95E00E9420322091D6052223A6
:1012E000C1F1822F90E0FC0173E0EE0FFF1F7A95B1
:1012F000E1F7E15BFA4F4A815B815183408393823E
:101300008282240E351E35822482840C951C97829D
:101310008682FC01EE0FFF1FE95CFA4F718260824A
:101320002F5F2093D6050F900F900F90DF91CF91F4
:101330001F910F91FF90EF90DF90CF90BF90AF90F3
:101340009F908F907F906F905F904F903F902F90E5
:101350000895EFE4F5E01182108213821282158263
:10136000148217821682389655E0EF3AF50799F7FE
:10137000E7E3F5E08FE195E081939193A5E0EF3409
:10138000FA07D1F7AECFEF92FF920F93CF9388E198
:1013900096E00E946F218CEE95E00E94A9273CE226
:1013A000E32EFF24F39407E020E14FE066E084EEB3
:1013B00095E00E949B2D80E090E00E948004809345
:1013C000E30582E090E00E9480048093E20581E0E2
:1013D00090E00E94800491E0811101C090E0909320
:1013E000E10580E190E00E9480048093DD0581E1C9
:1013F00090E00E9480048093DE0582E190E00E94EC
:1014000080048093DF0583E190E00E948004809354
:10141000E00584E090E00E9480048093DC0586E093
:1014200090E00E9480048093DB058AE090E00E94B7
:101430008004C82F8093DA058CE090E00E9480043D
:101440008093D9058EE090E00E9480048093D805B7
:10145000C093D7050E94F72D6093BB057093BC0520
:101460008093BD059093BE05CF910F91FF90EF90B3
:10147000089584E596E00E9453338EE496E00C9440
:101480005333CF93DF9326E040E950ED63E070E003
:1014900081E397E00E94693064EF71E080E090E0C2
:1014A0000E94262E60EA70E081E397E00E94FC3102
:1014B0004BE06DE088E196E00E947F218CEE95E0A4
:1014C0000E941A258CEE95E00E943D28EC0162E90D
:1014D00070E081E397E00E94BE314AE050E0BE0137
:1014E00081E397E00E94F632209711F4C9E8D7E72C
:1014F000BE018CEE95E00E94A02AC938D74711F4AE
:1015000062E001C060E08CEE95E00E94622760E03E
:1015100070E08CEE95E00E94DD2A8091D9058F3F26
:1015200039F41092D90560E08CE090E00E948204CA
:101530008091E2058F3F41F48AE08093E2056AE002
:1015400082E090E00E9482048091E3058F3F39F4AD
:101550001092E30560E080E090E00E9482048091B8
:10156000D8058F3F41F48EE18093D8056FE08EE07F
:1015700090E00E9482048091DA05853660F08FE069
:101580008093DA056FE08AE090E00E948204809107
:10159000DA058093D7058091DC058F3F39F41092EE
:1015A000DC0560E084E090E00E9482048091DB052D
:1015B0008F3F41F481E08093DB0561E086E090E0BD
:1015C0000E9482048091DD058F3F11F581E08093B8
:1015D000DD0561E080E190E00E94820482E080937A
:1015E000DE0562E081E190E00E94820483E0809366
:1015F000DF0563E082E190E00E94820484E0809352
:10160000E00564E083E190E0DF91CF910C948204E7
:10161000DF91CF910895EF92FF920F93CF93DF93D5
:10162000EB017901BA018CEE95E00E94DD2AFE0102
:1016300001900020E9F73197EC1BFD0BCF010197DA
:1016400045E04E9F90014F9F300D1124820F931F54
:10165000089FA001099F500D11245695479568E7F2
:1016600070E0641B750B45E050E08CEE95E00E9445
:101670004520B7018CEE95E00E945120602F8CEE42
:1016800095E00E944B20BE018CEE95E00E94203236
:101690001092D6058091220180932101DF91CF9194
:1016A0000F91FF90EF900895AF92BF92CF92EF927B
:1016B000FF920F931F93909121018091220198171F
:1016C00009F469C003E02FEF3FEF4FE158EF67E205
:1016D00071E081E30E940B0BAA24AA94BA2CE2E0E9
:1016E000CE2EFEE2EF2EF1E0FF2E00E010E02DE224
:1016F00030E048EC50E063E270E084E190E00E946A
:10170000FF08AAE3EA2EA1E0FA2E2DE230E048EC31
:1017100050E065E570E084E190E00E94FF08BAE4E3
:10172000EB2EB1E0FB2E2DE230E048EC50E067E814
:1017300070E084E190E00E94FF0886E5E82E81E0F9
:10174000F82E2DE230E048EC50E069EB70E084E1E7
:1017500090E00E94FF089FE5E92E91E0F92E2DE22E
:1017600030E048EC50E06BEE70E084E190E00E94E5
:10177000FF08A12CB12C27E6E22E21E0F22E00EE8C
:101780001FEF2EE130E044E650E062E271E086E4D3
:1017900090E00E94FF081F910F91FF90EF90CF9073
:1017A000BF90AF9008950E94540B0E94C20821E0A0
:1017B0008635920711F489E61CC021E08A3392072E
:1017C00011F484E616C021E08A34920711F488E609
:1017D00010C021E08E32920711F482E70AC021E0A6
:1017E0008F35920711F482E304C08756914019F4B3
:1017F0008DE6809322010895AF92BF92CF92EF922F
:10180000FF920F931F9390912101809122019817CD
:1018100009F44DC003E02FEF3FEF4FE158EF67E2CF
:1018200071E082E30E940B0BAA24AA94BA2C42E036
:10183000C42E5CE6E52E51E0F52E00E010E027E333
:1018400030E048EC50E062E370E084E190E00E9418
:10185000FF0867E7E62E61E0F62E27E330E048EC6C
:1018600050E062ED70E084E190E00E94FF087EE7C6
:10187000E72E71E0F72E27E330E048EC50E068E710
:1018800070E084E190E00E94FF08A12CB12CE7E613
:10189000EE2EE1E0FE2E00EE1FEF2EE130E044E6FA
:1018A00050E062E271E086E490E00E94FF081F9140
:1018B0000F91FF90EF90CF90BF90AF9008950E944E
:1018C000FC0B0E94C20821E08C36920711F488E7D5
:1018D00010C021E08737920711F484E70AC021E0A5
:1018E0008E37920711F488E404C08756914019F4AA
:1018F00081E3809322010895AF92BF92CF92DF924D
:10190000EF92FF920F931F939091210180912201FA
:10191000981709F474C003E02FEF3FEF4FE158EF41
:1019200068E871E089E60E940B0BAA24AA94BA2CFD
:10193000A2E0CA2EB4E9EB2EB1E0FB2E00E010E0ED
:1019400027E330E048EC50E068E270E084E190E0AA
:101950000E94FF088CE9E82E81E0F82E27E330E0B2
:1019600048EC50E064E670E084E190E00E94FF08FB
:1019700093EAE92E91E0F92E27E330E048EC50E0BD
:1019800060EA70E084E190E00E94FF082AEAE22E1B
:1019900021E0F22E27E330E048EC50E06CED70E0FF
:1019A00084E190E00E94FF08A12CB12C37E6E32EE1
:1019B00031E0F32E00EE1FEF2EE130E044E650E080
:1019C00062E271E086E490E00E94FF084091DC054D
:1019D0008CE3489FA0011124495C5F4F60EEC62E46
:1019E000DD24DA9475E0E72EF12C09E110E029E11D
:1019F00030E064EB70E08CEE95E00E945A1D1F9180
:101A00000F91FF90EF90DF90CF90BF90AF9008952F
:101A10000E947C0C0E94C20821E08439920719F4CC
:101A20001092DC0507C021E08C39920739F481E07F
:101A30008093DC058EE680932101089521E0833AAE
:101A4000920711F482E0F4CF21E08A3A920711F470
:101A500083E0EECF8756914049F46091DC0584E045
:101A600090E00E94820481E3809322010895AF9266
:101A7000BF92CF92DF92EF92FF920F931F9320912C
:101A8000DC059091210180912201211150C098170D
:101A900009F4A8C003E02FEF3FEF4FE158EF61EBEF
:101AA00071E088E60E940B0BA12CB12C92E0C92EAC
:101AB00027E6E22E21E0F22E00EE1FEF2EE130E0CD
:101AC00044E650E062E271E086E490E00E94FF08A4
:101AD00060E070E08CEE95E00E94512063E08CEEB7
:101AE00095E00E944B204CE850E065E070E08CEE01
:101AF00095E00E9445206BEB71E08CEE95E00E9432
:101B0000203244EB50E065E070E08CEE95E00E94FE
:101B1000452069EC71E08CEE95E01F910F91FF90EC
:101B2000EF90DF90CF90BF90AF900C942032981739
:101B300009F458C003E02FEF3FEF4FE158EF67ED96
:101B400071E088E60E940B0BAA24AA94BA2CF2E05A
:101B5000CF2EA1EEEA2EA1E0FA2E00E010E027E35E
:101B600030E048EC50E060E570E084E190E00E94F5
:101B7000FF08B5EEEB2EB1E0FB2E27E330E048EC9A
:101B800050E064EB70E084E190E00E94FF08A12C3B
:101B9000B12C17E6E12E11E0F12E00EE1FEF2EE141
:101BA00030E044E650E062E271E086E490E00E94BA
:101BB000FF084091E1052CE92403A00111244D53B5
:101BC0005F4F00EEC02EDD24DA9485E0E82EF12C84
:101BD00009E110E029E130E064EB70E08CEE95E083
:101BE0000E945A1D1F910F91FF90EF90DF90CF90B0
:101BF000BF90AF9008950E94370D0E94C20821E067
:101C0000813E920721F481E08093E10506C021E046
:101C1000853E920731F41092E1058EE68093210112
:101C200008958756914049F46091E10581E090E084
:101C30000E94820481E3809322010895AF92BF92B3
:101C4000CF92EF92FF920F931F9390912101809179
:101C50002201981769F103E02FEF3FEF4FE158EFB2
:101C600068EE71E089E60E940B0BAA24AA94BA2CB4
:101C700042E0C42E55EEE52E51E0F52E00E010E0D6
:101C800027E330E048EC50E060E570E084E190E06C
:101C90000E94FF0861EEE62E61E0F62E27E330E0B9
:101CA00048EC50E064EB70E084E190E00E94FF08B3
:101CB0001F910F91FF90EF90CF90BF90AF9008953C
:101CC000AF92BF92CF92EF92FF920F931F9390919A
:101CD000210180912201981709F4CCC002E020EE86
:101CE0003FEF40E050E065EF71E080E70E940B0BB2
:101CF000A12CB12C74E0C72EE1EAEE2EE1E0FE2E1D
:101D00000FE110E021E430E041E450E069E170E0EF
:101D10008AE090E00E94FF08F8EAEF2EF1E0FF2E43
:101D200021E430E041E450E069E170E085E590E0D5
:101D30000E94FF08AFEAEA2EA1E0FA2E21E430E08B
:101D400041E450E069E170E080EA90E00E94FF0821
:101D5000B5E0EB2EB2E0FB2E21E430E041E450E0B0
:101D600064E670E08AE090E00E94FF0887E0E82ED9
:101D700082E0F82E21E430E041E450E064E670E0D7
:101D800085E590E00E94FF0899E0E92E92E0F92EA7
:101D900021E430E041E450E064E670E080EA90E065
:101DA0000E94FF082BE0E22E22E0F22E21E430E038
:101DB00041E450E06FEA70E08AE090E00E94FF08A2
:101DC0003DE0E32E32E0F32E21E430E041E450E048
:101DD0006FEA70E085E590E00E94FF084FE0E42E96
:101DE00042E0F42E21E430E041E450E06FEA70E09C
:101DF00080EA90E00E94FF08AA24AA94BA2C63E02B
:101E0000C62E71E1E72E72E0F72E00E018EF21E414
:101E100030E041E450E06AEF70E08AE090E00E9438
:101E2000FF08A12CB12CE4E0CE2EF5E1EF2EF2E07C
:101E3000FF2E0FE110E021E430E041E450E06AEFD2
:101E400070E085E590E00E94FF08AA24AA94BA2CCD
:101E5000B3E0CB2E17E1E12E12E0F12E00EE17E0F9
:101E600021E430E041E450E06AEF70E080EA90E085
:101E70000E94FF081F910F91FF90EF90CF90BF90AD
:101E8000AF9008950E941E0E0E94C20821E0813E7C
:101E9000920771F460E080E090E00E94820410926A
:101EA000E30560E070E08CEE95E00E94DD2A03C05F
:101EB000855E914019F481E38093220108956F9229
:101EC0007F928F929F92AF92BF92CF92DF92EF92CA
:101ED000FF920F931F93CF93DF93EC014B01CA0145
:101EE0005901D02E370110E02097F1F4F901448117
:101EF00055819A0121503109E5E0E49FB001E59F49
:101F0000700D1124260F371F209FA001219F500D17
:101F1000309F500D1124C0EFD0E0C41BD50BD695D7
:101F2000C795FF24F39401C0F12C8130910531F461
:101F3000A401BE018CEE95E00E94782BC11002C076
:101F4000F501C4802C2D30E021503109F5E0CF9E01
:101F5000200D311D1124209FA001219F500D309F85
:101F6000500D11249A012E5F3F4FFF2051F0EEEEED
:101F7000F0E0E41BF50BF7FD3196BF017595679511
:101F800003C0BE016150710947E0D49E8001112455
:101F90000E5F1F4FA401415051097C018CEE95E06A
:101FA0000E94272AB3018CEE95E00E9451206D2DEE
:101FB0008CEE95E00E944B20A401BE018CEE95E0D2
:101FC0000E944520B5018CEE95E0DF91CF911F91E5
:101FD0000F91FF90EF90DF90CF90BF90AF909F90C8
:101FE0008F907F906F900C940E32AF92BF92CF92F1
:101FF000EF92FF920F931F93CF93DF9300D000D007
:1020000000D0CDB7DEB790912101809122019817C1
:1020100009F45AC003E02FEF3FEF4FE158EF6AE1B8
:1020200072E084E60E940B0BAA24AA94BA2C42E028
:10203000C42E56E2E52E52E0F52E00E010E027E334
:1020400030E048EC50E062E370E084E190E00E9410
:10205000FF0869E2E62E62E0F62E27E330E048EC66
:1020600050E062ED70E084E190E00E94FF08A12C56
:10207000B12C77E6E72E71E0F72E00EE1FEF2EE190
:1020800030E044E650E062E271E086E490E00E94D5
:10209000FF084AE06091E205CE0101960E942734D4
:1020A000E3E0CE2EE12CF12C04E09E012F5F3F4FA8
:1020B0004FE158EF6CE870E080E090E00E945F0F25
:1020C000CE0101960E94533326960FB6F894DEBFD8
:1020D0000FBECDBFDF91CF911F910F91FF90EF9079
:1020E000CF90BF90AF900895CF92EF92FF920F9351
:1020F000CF93DF9300D000D000D0CDB7DEB70E94E1
:10210000F50F0E94C20822E08632920721F4609106
:10211000E2056F5F07C022E089329207F9F460910F
:10212000E20561506093E2054AE0CE0101960E940B
:102130002734F3E0CF2EE12CF12C04E09E012F5F39
:102140003F4F4FE158EF6CE870E080E090E00E9474
:102150005F0FCE0101960E9453330CC08756914009
:1021600049F46091E20582E090E00E94820481E3FC
:102170008093220126960FB6F894DEBF0FBECDBF26
:10218000DF91CF910F91FF90EF90CF900895AF9294
:10219000BF92CF92EF92FF920F931F93CF93DF9353
:1021A00000D000D000D0CDB7DEB790912101809152
:1021B0002201981709F4B9C003E02FEF3FEF4FE178
:1021C00058EF6EE272E088E40E940B0BAA24AA94F6
:1021D000BA2CB2E0CB2E18E3E12E12E0F12E00E093
:1021E00010E027E330E048EC50E068E270E084E182
:1021F00090E00E94FF084AE060911D01CE01019627
:102200000E942734CC24C394EE24EA94FE2C03E0ED
:102210009E012F5F3F4F40E050E067E370E083ECAA
:1022200090E00E945F0FCE0101960E94533382E03E
:10223000C82E96E4E92E92E0F92E00E010E027E3A4
:1022400030E048EC50E064E670E084E190E00E9409
:10225000FF0860911C01CE0101960E940F34CC242E
:10226000C394EE24EA94FE2C03E09E012F5F3F4FBF
:1022700040E050E063E770E083EC90E00E945F0F85
:10228000CE0101960E94533332E0C32E44E5E42E82
:1022900042E0F42E00E010E027E330E048EC50E0AC
:1022A00060EA70E084E190E00E94FF0860911B0109
:1022B000CE0101960E940F34CC24C394EE24EA94FC
:1022C000FE2C03E09E012F5F3F4F40E050E06FEA9D
:1022D00070E083EC90E00E945F0FCE0101960E94B7
:1022E000533362E0C62E72E6E72E72E0F72E00E06E
:1022F00010E027E330E048EC50E06CED70E084E162
:1023000090E00E94FF08A12CB12CE7E6EE2EE1E060
:10231000FE2E00EE1FEF2EE130E044E650E062E2D8
:1023200071E086E490E00E94FF0826960FB6F894CC
:10233000DEBF0FBECDBFDF91CF911F910F91FF90F8
:10234000EF90CF90BF90AF900895CF92EF92FF9211
:102350000F93CF93DF9300D000D000D0CDB7DEB77E
:102360000E94C7100E94C20822E08236920729F418
:1023700081E080931F0181E692C022E088339207BA
:10238000E1F580911D018F5F843018F480931D0169
:1023900002C010921D0180911D01813019F482E06C
:1023A00080931D014AE060911D01CE0101960E94BB
:1023B0002734CC24C394EE24EA94FE2C03E09E013F
:1023C0002F5F3F4F40E050E067E370E083EC90E028
:1023D0000E945F0FCE0101960E94533380911D0130
:1023E000811104C01092200181E004C081E080933B
:1023F000200188E080931E0154C022E086349207B9
:10240000F9F480911C01893511F48EE403C08E34F7
:1024100019F489E580931C0160911C01CE0101969D
:102420000E940F34CC24C394EE24EA94FE2C03E0E3
:102430009E012F5F3F4F40E050E063E770E022C015
:1024400022E08435920739F580911B01893511F41A
:102450008EE403C08E3419F489E580931B016091EA
:102460001B01CE0101960E940F34CC24C394EE24AC
:10247000EA94FE2C03E09E012F5F3F4F40E050E0C6
:102480006FEA70E083EC90E00E945F0FCE0101964E
:102490000E94533306C08756914019F482E380931B
:1024A000220126960FB6F894DEBF0FBECDBFDF9196
:1024B000CF910F91FF90EF90CF900895AF92BF9280
:1024C000CF92EF92FF920F931F93CF93DF9300D0A1
:1024D00000D000D0CDB7DEB79091210180912201CC
:1024E000981709F49BC003E02FEF3FEF4FE158EF3F
:1024F00068E672E088E40E940B0B80911D0188233E
:1025000009F465C0AA24AA94BA2C42E0C42E55E767
:10251000E52E52E0F52E00E010E027E330E048EC35
:1025200050E068E270E084E190E00E94FF0861E81A
:10253000E62E62E0F62E27E330E048EC50E064E659
:1025400070E084E190E00E94FF084AE06091200181
:10255000CE0101960E942734CC24C394EE24EA9441
:10256000FE2C03E09E012F5F3F4F40E050E067E309
:1025700070E083EC90E00E945F0FCE0101960E9414
:10258000533380911A01882339F064E272E0CE015E
:1025900001960E94C1330CC06CEF72E0CE0101962F
:1025A0000E94C133CC24C394EE24EA94FE2C03E0B1
:1025B0009E012F5F3F4F40E050E063E770E083EC07
:1025C00090E00E945F0FCE0101960E945333AA242F
:1025D000AA94BA2C02E0C02E80E9E82E82E0F82E00
:1025E00000E010E027E330E048EC50E06CED70E0F4
:1025F00084E190E00E94FF08A12CB12C97E6E92E1F
:1026000091E0F92E00EE1FEF2EE130E044E650E0BD
:1026100062E271E086E490E00E94FF0826960FB621
:10262000F894DEBF0FBECDBFDF91CF911F910F9108
:10263000FF90EF90CF90BF90AF900895CF92EF9220
:10264000FF920F93CF93DF9300D000D000D0CDB78F
:10265000DEB703E02FEF3FEF40E058EF6AE972E0AA
:1026600088E40E940B0B80911901882309F46CC047
:1026700068E670E081E397E00E94BE314AE050E0F6
:102680006091190181E397E00E94D83240E050E068
:1026900060E588E196E00E9472244091170150E0C5
:1026A00064E488E196E00E947224809119010E94FE
:1026B0000E08482F50E064E488E196E00E947224FE
:1026C00048E050E064E488E196E00E94722448E02B
:1026D00050E064E488E196E00E94722440E050E01B
:1026E00064E488E196E00E94722440E050E063E4F4
:1026F00088E196E00E9472244AE060911901CE01BF
:1027000001960E942734E2E0CE2EEE24EA94FE2CBD
:1027100008E09E012F5F3F4F40E058EF6CE870E00B
:1027200080E090E00E945F0FCE0101960E9453333B
:102730008091190181508093190168E572E080E071
:1027400090E00E94262E8FCF60E080E090E00E9413
:1027500082041092E3058DE68093220126960FB63F
:10276000F894DEBF0FBECDBFDF91CF910F91FF90E8
:10277000EF90CF90089580911D01811105C091E0E7
:1027800020911F01293108F490E0882341F0209125
:102790002001821720F480911F01883011F09923C5
:1027A00041F06CED75E080E090E00E94262E0C94E4
:1027B0001E130895CF92EF92FF920F93CF93DF9362
:1027C00000D000D000D0CDB7DEB780911A018823A9
:1027D000A9F1809120018F5F8093200190911D01CC
:1027E000981768F480911F01883019F40E94BB1378
:1027F00006C08F5F80931F0181E0809320014AE033
:1028000060912001CE0101960E942734CC24C3940C
:10281000EE24EA94FE2C03E09E012F5F3F4F40E040
:1028200050E067E370E083EC90E00E945F0FCE0120
:1028300001960E9453330E94BB132EC080911F014A
:102840008F5F893018F480931F0108C081E0809366
:102850001F01809120018F5F809320010E94BB1394
:102860004AE060912001CE0101960E942734CC24D9
:10287000C394EE24EA94FE2C03E09E012F5F3F4FA9
:1028800040E050E067E370E083EC90E00E945F0F6F
:10289000CE0101960E94533326960FB6F894DEBF00
:1028A0000FBECDBFDF91CF910F91FF90EF90CF90F2
:1028B00008959F92AF92BF92CF92DF92EF92FF92D4
:1028C0000F931F93CF93DF9300D000D000D0CDB7EC
:1028D000DEB70E94600E80912E0590912F05019623
:1028E00090932F0580932E058838934119F48DE637
:1028F000809322010E94C2085C010E943939D82EBF
:1029000080912C0590912D05049790F081E1A816F7
:1029100082E0B80609F051C067EA72E0CE01019684
:102920000E94C13398E0C92EE12CF12C02E098C03E
:1029300010E03FE0932ED1123BC0E0912C05F091C6
:102940002D05E954FA4FD08265EA72E0CE01019676
:102950000E94C13380912C0590912D05989EF00125
:10296000999EF00D1124CC24C39420EEE22EFF2476
:10297000FA9402E09E012F5F3F4F40E050E065E097
:1029800070E0CF018A569F4F0E945F0FCE010196E3
:102990000E94533320912C0530912D052F5F3F4F1E
:1029A00030932D0520932C0510922F0510922E05A3
:1029B0001F5F1A3009F0BFCFA9CF27E1A21622E08E
:1029C000B20609F064C09091B7058091DD059813B7
:1029D0001CC09091B8058091DE05981316C09091A7
:1029E000B9058091DF05981310C09091BA058091C8
:1029F000E00598130AC010922D0510922C0581E372
:102A0000809322010E941C0842C06FEA72E0CE014E
:102A100001960E94C13315E0C12EE12C08EFF02E83
:102A200002E09E012F5F3F4F40E050E065E070E024
:102A300086E990E00E945F0FCE0101960E94533319
:102A400064EF71E080E090E00E94262E67EA72E079
:102A5000CE0101960E94C13388E0C82EE12CF12CF2
:102A60009E012F5F3F4F40E050E065E070E086E957
:102A700090E00E945F0FCE0101960E9453331092A6
:102A80002D0510922C0510922F0510922E052696DA
:102A90000FB6F894DEBF0FBECDBFDF91CF911F916F
:102AA0000F91FF90EF90DF90CF90BF90AF909F90ED
:102AB0000895CF92EF92FF920F93CF93DF9300D0C0
:102AC00000D000D0CDB7DEB741E050E061E070E06B
:102AD0008CEE95E00E94782B90930B0180930A0175
:102AE00081E0809336050E94F72D60933205709344
:102AF0003305809334059093350588E196E00E9474
:102B0000BC219091DC05891310C065EA72E0CE010A
:102B100001960E94C13340910A0150910B01C12CD2
:102B2000E0EEEE2EE7E0FE2E36C088E196E00E9451
:102B3000C82181111CC065EA72E0CE0101960E9495
:102B4000C13340910A0150910B01C12CE12C78EF67
:102B5000F72E02E09E012F5F3F4F67E271E081EEAA
:102B600090E00E945F0FCE0101960E94533388E1EE
:102B700096E00E94C8218823E1F065EA72E0CE0168
:102B800001960E94C13340910A0150910B01C12C62
:102B90006FE1E62EF12C02E09E012F5F3F4F67E2CE
:102BA00071E081EE90E00E945F0FCE0101960E94DD
:102BB000533326960FB6F894DEBF0FBECDBFDF911C
:102BC000CF910F91FF90EF90CF900895CF92EF9219
:102BD000FF920F931F93CF93DF9300D000D000D0CC
:102BE000CDB7DEB7882319F00E9459153FC00E9467
:102BF000F72D009132051091330520913405309165
:102C00003505601B710B820B930B673971058105CC
:102C1000910560F180913605882341F141E050E053
:102C200061E070E08CEE95E00E94782B90930B01B0
:102C300080930A011092360565EA72E0CE01019692
:102C40000E94C13340910A0150910B01C12C7A01BD
:102C500002E09E012F5F3F4F67E271E081EE90E05E
:102C60000E945F0FCE0101960E94533380E02696AA
:102C70000FB6F894DEBF0FBECDBFDF91CF911F918D
:102C80000F91FF90EF90CF900895CF93DF9300D0F6
:102C900000D000D0CDB7DEB788E196E00E94CB230C
:102CA000882309F43CC188E196E00E94B92184346C
:102CB00009F4DDC03CF4823409F466C0833409F4BD
:102CC000E9C00CC18435A9F1883509F401C180350A
:102CD00009F004C163E571E081E397E00E94BE3131
:102CE00063E471E081E397E00E94BE3188E196E001
:102CF0000E94CB2140E150E0682F81E397E00E94E1
:102D0000D8326FE371E081E397E00E94BE3168E161
:102D100076E0CE0101960E94CE21BE016F5F7F4F0B
:102D200081E397E00E94E131CE0101960E94533386
:102D3000D5C067E272E081E397E00E94BE3165EBA7
:102D400072E081E397E00E94EF3188E196E00E9413
:102D5000BC214AE050E0682F81E397E00E94D8321E
:102D60006BE172E081E397E00E94BE3188E196E07A
:102D70000E94BF214AE050E0682F81E397E00E9463
:102D8000D8326BE072E030C00E94591588E196E0BD
:102D90000E94C521803349F46BEF71E081E397E035
:102DA0000E94BE3160EF71E052C088E196E00E945F
:102DB000C521813311F566ED71E081E397E00E9452
:102DC000BE316BEC71E081E397E00E94BE3188E197
:102DD00096E00E94BC214AE050E0682F81E397E032
:102DE0000E94D8326CEB71E081E397E00E94BE3123
:102DF00088E196E00E94C22132C088E196E00E94FC
:102E0000C5218A3519F46CEA71E064C088E196E066
:102E10000E94C521823319F468E971E05BC088E142
:102E200096E00E94C521833309F058C06CE771E039
:102E300081E397E00E94BE3188E196E00E94BC21C8
:102E4000811103C064E771E045C069E671E081E388
:102E500097E00E94BE3188E196E00E94BC214AE0E2
:102E600050E0682F81E397E00E94D83237C061E3D9
:102E700071E081E397E00E94BE3188E196E00E9414
:102E8000D921AB01BC0120E130E081E397E00E9451
:102E9000813224C062E271E081E397E00E94BE319A
:102EA00088E196E00E94E121882319F06EE171E04B
:102EB00008C088E196E00E94E121811106C068E126
:102EC00071E081E397E00E94BE3161E071E002C0F1
:102ED00061EF70E081E397E00E94BE3188E196E007
:102EE0000E94B4218823D9F068EC70E081E397E078
:102EF0000E94BE3188E196E00E94B4214AE050E091
:102F0000682F81E397E00E94D83265EB70E081E39F
:102F100097E00E94FC3188E196E00E94AF2126965E
:102F20000FB6F894DEBF0FBECDBFDF91CF910895ED
:102F3000AF92BF92CF92EF92FF920F931F93CF93D6
:102F4000DF9300D000D000D0CDB7DEB79091210143
:102F500080912201981709F480C003E020E038EF47
:102F600040E050E06EEB72E08DE60E940B0BA12C6E
:102F7000B12CF4E0CF2EACECEA2EA2E0FA2E00E069
:102F800010E020EA30E040EA50E068E270E088E2D9
:102F900090E00E94FF08E12CB8EFFB2E08E210E061
:102FA00020EA30E044E650E068E270E08CEE95E024
:102FB0000E94272A00EA10E028E230E048E250E0D0
:102FC00064E670E08CEE95E00E94272AAA24AA9479
:102FD00017E0B12ECC24C39407E2E02E01E0F02EDE
:102FE00000E010E02AE030E048E250E06CE271E0FE
:102FF00084E690E00E94FF0861ED72E0CE01019648
:103000000E94C133C12C8FE1E82E88EFF82E04E036
:103010009E012F5F3F4F40E050E066EE70E080E0A1
:1030200090E00E945F0FCE0101960E9453334AE068
:103030006091E305CE0101960E9427349E012F5F27
:103040003F4F40E050E06EE071E080E090E00E9491
:103050005F0FCE0101960E94533326960FB6F89467
:10306000DEBF0FBECDBFDF91CF911F910F91FF90BB
:10307000EF90CF90BF90AF9008950F931F93CF9391
:10308000DF93C091DC0584E0C89FE0011124239602
:1030900060EE77E08CEE95E00E94DD2A05E010E01E
:1030A000AE0162E488E196E00E94722401501109A9
:1030B000B9F78EE680932101DF91CF911F910F9197
:1030C0000C949817AF92BF92CF92EF92FF920F930A
:1030D000CF93DF9300D000D000D0CDB7DEB75C0136
:1030E0001A141B0434F54AE0B501CE0101960E9482
:1030F000543493E0C92E20EEE22EFF24FA9404E02B
:103100009E012F5F3F4F40E058EF69E670E080E09E
:1031100090E00E945F0FCE0101960E94533368EE4B
:1031200073E080E090E00E94262E81E0A81AB108AA
:10313000D7CF6091E3056F5F6093E30580E090E097
:103140000E9482040E943D1826960FB6F894DEBFB6
:103150000FBECDBFDF91CF910F91FF90EF90CF9039
:10316000BF90AF9008950E9498170E94C20822E075
:103170008C3C920731F48091E20590E00E94621845
:1031800006C08752914019F480E780932201809114
:10319000300590913105019690933105809330056B
:1031A000883E9340F1F58091E1058823D1F180912B
:1031B000DC05813071F443E450E064E588E196E099
:1031C0000E94722443E650E064E588E196E00E94A4
:1031D00072248091DC05823071F443E250E064E5B2
:1031E00088E196E00E94722443E650E064E588E1BD
:1031F00096E00E9472248091DC05833071F443E2F2
:1032000050E064E588E196E00E94722443E450E0D7
:1032100064E588E196E00E947224109231051092D4
:10322000300508950E94032E809122018D3619F4F5
:103230000E94B3182CC0803719F40E94591427C07B
:10324000813319F40E94D30B22C0893619F40E94ED
:10325000080D1DC0883619F40E94FB0D18C0823776
:1032600019F40E94420F13C0843619F40E9474109E
:103270000EC0823319F40E945F0C09C0883419F41F
:103280000E94A51104C0813611F40E94E9198091B1
:1032900022018D3611F40E94451680E00C94E6154B
:1032A000CF92EF92FF920F93CF93DF9300D000D095
:1032B00000D0CDB7DEB763E870E081E397E00E940D
:1032C000BE314AE050E06091200181E397E00E9426
:1032D000D83266E770E081E397E00E94BE314AE0B1
:1032E00050E060911F0181E397E00E94DF324AE0E5
:1032F00060912001CE0101960E942734CC24C39412
:10330000EE24EA94FE2C03E09E012F5F3F4F40E045
:1033100050E067E370E083EC90E00E945F0FCE0125
:1033200001960E9453330E946F0764E670E080E0CC
:1033300090E00E94262E41E050E060E588E196E0B2
:103340000E9472240E9412194091170150E064E417
:1033500088E196E00E9472240E9412194091D505DE
:1033600050E064E488E196E00E9472240E94121901
:1033700040911E0150E064E488E196E00E947224CE
:103380000E94121940E050E063E488E196E00E9458
:1033900072240E94DA1326960FB6F894DEBF0FBE91
:1033A000CDBFDF91CF910F91FF90EF90CF90089517
:1033B0008091170190E02091C3053091C405281732
:1033C000390731F48091C5058093D5050C945019C7
:1033D0000895CF92EF92FF920F931F93CF93DF93B5
:1033E00000D000D000D0CDB7DEB70E945E120E94A0
:1033F000C20822E08537920711F590911D019923AB
:1034000009F4CDC0809120018F5F981708F481E006
:10341000809320014AE060912001CE0101960E9434
:103420002734CC24C394EE24EA94FE2C03E09E01BE
:103430002F5F3F4F40E050E067E370E01DC022E0A7
:103440008138920741F580911A018823F1F010929A
:103450001A016CEF72E0CE0101960E94C133CC24B8
:10346000C394EE24EA94FE2C03E09E012F5F3F4FAD
:1034700040E050E063E770E083EC90E00E945F0F73
:10348000CE0101960E94533313C081E080931A014C
:1034900064E272E0E0CF22E08039920719F40E94E2
:1034A0001E1306C08756914019F488E480932201C8
:1034B0000E947B0788E196E00E94CB23882309F4D1
:1034C0006EC088E196E00E94B921843409F445C0B9
:1034D000803521F0833409F062C051C01092C005DC
:1034E00068E176E0CE0101960E94CE216AED72E09D
:1034F000CE0101960E948034182FCE0101960E94C1
:103500005333112359F0E091C005F0E0EE0FFF1F97
:10351000EF53FA4F80E190E09183808368E176E099
:10352000CE0101960E94CE216CEE72E0CE01019692
:103530000E948034182FCE0101960E94533311232C
:1035400071F1E091C005F0E0EE0FFF1FEF53FA4F6D
:1035500081E190E09183808322C01091C0051F5FBC
:103560001093C00588E196E00E94D921E12FF0E098
:10357000EE0FFF1FEF53FA4F7183608310C088E195
:1035800096E00E94E121882341F08091C10590914D
:10359000C205409711F40E94D8191092C0052696D2
:1035A0000FB6F894DEBF0FBECDBFDF91CF911F9154
:1035B0000F91FF90EF90CF9008952F923F924F92EE
:1035C0005F926F927F928F929F92AF92BF92CF92B3
:1035D000DF92EF92FF920F931F93CF93DF9300D070
:1035E00000D0CDB7DEB74C017C836B836A015901F3
:1035F000C8018701AC014C195D0957FF03C0519503
:103600004195510995016B817C81261B370B37FF52
:1036100003C031952195310922242394312C24179C
:10362000350714F0212C312C2114310459F03A2D96
:103630002B2D5C01832F922F3B812C81DC82CB824E
:10364000C32ED22EAB81BC81AA16BB065CF43C2DE6
:103650002D2D6C01832F922F3B812C81BC82AB825C
:10366000A32EB22E2501EB81FC814E1A5F0A3C018C
:103670006C187D0877FE03C0719461947108720123
:1036800057FE03C0FFEFEF1AFF0AF594E794C81640
:10369000D9062CF421E030E03A83298324C06FEF6F
:1036A0007FEF7A8369831FC0D401ED91FC91048080
:1036B000F581E02D980121143104D9F04B815C8112
:1036C000B601C4010995E618F708F7FE06C0E981BE
:1036D000FA81CE0EDF1EE40CF51C2B813C812F5F9E
:1036E0003F4F3C832B836B817C81A616B706E4F6A3
:1036F00004C0A6016B817C81E4CF0F900F900F90E6
:103700000F90DF91CF911F910F91FF90EF90DF907D
:10371000CF90BF90AF909F908F907F906F905F9071
:103720004F903F902F9008956F927F928F929F922B
:10373000AF92BF92CF92DF92EF92FF920F931F93BF
:10374000CF93DF93EC015B016A0139014801E88105
:10375000F9810284F385E02D87010995E881F981DB
:10376000A601480D591D415051090284F385E02DF1
:103770009301B501CE010995E881F9810084F185B5
:10378000E02D9401A601B501CE010995E881F981EA
:10379000B501660D771D615071090084F185E02D3A
:1037A0009401A601CE010995DF91CF911F910F9150
:1037B000FF90EF90DF90CF90BF90AF909F908F9051
:1037C0007F906F900895EF92FF920F931F93DC010B
:1037D000ED91FC91240F351F215031090680F781AE
:1037E000E02D780189019B0109951F910F91FF90B0
:1037F000EF900895EF92FF920F931F93DC01ED91EC
:10380000FC91260F371F215031090680F781E02DEA
:1038100078018A0109951F910F91FF90EF9008950B
:103820006F927F928F929F92AF92BF92CF92DF92D0
:10383000EF92FF920F931F93CF93DF935C014A01A6
:1038400069013801EB01C60ED71ECC15DD0574F4F5
:10385000D501ED91FC910084F185E02D8701930164
:10386000A401BE01C50109952196EFCFDF91CF914B
:103870001F910F91FF90EF90DF90CF90BF90AF908E
:103880009F908F907F906F900895EF92FF920F938B
:103890001F93DC01ED91FC9111971A960D911C91EB
:1038A0001B9718962D913C9119970684F785E02D6A
:1038B0007B0140E050E060E070E009951F910F91BE
:1038C000FF90EF9008950895FC011382128282E028
:1038D00093E09183808375836483578346837187E4
:1038E000608753874287158A158614861786168641
:1038F00021E0248B8FEF9FEF938B828B918B808BBA
:10390000268B178A118E108E08952F923F924F9218
:103910005F926F927F928F929F92AF92BF92CF925F
:10392000DF92EF92FF920F931F93CF93DF93CDB768
:10393000DEB728970FB6F894DEBF0FBECDBF5C018F
:103940001B015A83498338872F83FC82EB828824AA
:103950008394912C821A930A3901719461947108AD
:10396000660C771C270123E0420E511CEE24E394E1
:10397000F12C302F31703D8302700E83C701019707
:10398000EF81F8858E179F070CF07BC097FC0AC06B
:103990008F819885019798878F8392E0690E711CBB
:1039A000860C971CC201AB81BC818A1B9B0B880EC5
:1039B000991EBD81BB2369F1D501ED91FC912F8149
:1039C0003885220F331F2F5F3F4F8B819C81280F3B
:1039D000391F0084F185E02D860149815A81AF812C
:1039E000B8854A1B5B0BB701620D731DC5010995B4
:1039F000D501ED91FC910084F185E02D9201498182
:103A00005A814E195F096F817885620D731DC5015A
:103A10000995BE81BB2371F1D501ED91FC912F81F8
:103A20003885220F331F2F5F3F4F8B819C81280FDA
:103A3000391F0084F185E02D860149815A81AF81CB
:103A4000B8854A1B5B0BB1016E197F09C501099549
:103A5000D501ED91FC910084F185E02D9201498121
:103A60005A814E195F09B1018F819885681B790BC6
:103A7000C50109959FEFE91AF90AA2E04A0E511C07
:103A80007DCF28960FB6F894DEBF0FBECDBFDF9175
:103A9000CF911F910F91FF90EF90DF90CF90BF904B
:103AA000AF909F908F907F906F905F904F903F90DE
:103AB0002F9008952F923F924F925F926F927F9234
:103AC0008F929F92AF92BF92CF92DF92EF92FF922E
:103AD0000F931F93CF93DF9300D000D000D0CDB7CA
:103AE000DEB75C017A8369833A013C832B8348010A
:103AF000FE82ED8226016701D194C194D108CC0CDD
:103B0000DD1C1B012E0C3F1CD501ED91FC912C0DF1
:103B10003D1D0684F785E02D72018401B101C501C8
:103B200009958C0C9D1CB1E08B1A9108ED81FE81EA
:103B30006E0E7F1E69817A818B819C81680F791F4F
:103B40006E1B7F0B615071096201740101E09F01DE
:103B5000A301C5010E94851C02E02D813E81A301C5
:103B6000B101C5010E94851C26960FB6F894DEBFF0
:103B70000FBECDBFDF91CF911F910F91FF90EF90BE
:103B8000DF90CF90BF90AF909F908F907F906F907D
:103B90005F904F903F902F9008952F923F924F92B9
:103BA0005F926F927F928F929F92AF92BF92CF92CD
:103BB000DF92EF92FF920F931F93CF93DF93CDB7D6
:103BC000DEB76A970FB6F894DEBF0FBECDBF1C01FB
:103BD00058874F831C870B87FA86E986CC82DC01E5
:103BE00058964D915C9159974115510509F0A6C021
:103BF00018968D919C911997681779070CF056C10A
:103C00001A968D919C911B97EF81F885E817F9071B
:103C10000CF04CC1D12CCB013C81F6E03F9F800DD4
:103C2000911D1124181619060CF040C1C60103E0BD
:103C3000880F991F0A95E1F74F815885840F951FCA
:103C4000181619060CF032C157968C91811103C0D9
:103C5000203B08F02F5F7E876D874B01198213E4AC
:103C6000A12E12E0B12EA61AB70A55E0259FA00C8E
:103C7000B11C11248981853039F0ED85FE85EA0D6E
:103C8000FB1D94919A8301C01A826F80788423016E
:103C9000A8E0AD83BA81B0FF12C0D101ED91FC91D3
:103CA000BC81B13031F40480F581E02D2B853C8559
:103CB00018C00684F785E02DEB84FC841DC0E985DF
:103CC000FA852B853C85E217F307E1F0D101ED91F0
:103CD000FC91BC81B13059F40480F581E02D298537
:103CE0003A85A2016D857E85C10109950BC00684C8
:103CF000F785E02DE984FA8486019601A301B401D9
:103D0000C1010995EA81E695EA83FD81F150FD83C1
:103D10006C0C7D1C2FEF421A520AF111BBCF398176
:103D20003F5F39838C0C9D1C4D855E854F5F5F4FD7
:103D30005E874D87363009F09DCFB8C0FA013496C2
:103D40003491329785919491231BA7E02A9F800D8F
:103D5000911D1124FA0125913491398B288BFC0196
:103D6000459154915A8F498FFC013296549159874D
:103D70003196A491AF873196E491FC013596249158
:103D800031968491BC81B23050F0622E772467FC6A
:103D90007094E82FFF27E7FDF095FE87ED87FC8103
:103DA000CF2ED12C6C9C40016D9C900C7C9C900C77
:103DB0001124860E971EA12C1982DE8ACD8AAB01B2
:103DC000420F511D27FD5A955E834D83AF81B88503
:103DD000A80FB11D87FDBA95B88FAF8B59818F851C
:103DE000581708F063C0852F90E02D853E85280F79
:103DF000391F2C9DD0012D9DB00D3C9DB00D11247F
:103E0000EF81F885EA0FFB1FFB83EA836D807E80DC
:103E10002401FA2D2D81F21BFA8B4F89588D480F02
:103E2000591F5C8B4B8B9A89960D862D2D81821B99
:103E300039858317B0F5977061F4898D9A8D019655
:103E4000E889F989298D3A8DE20FF31FB4909A8F92
:103E5000898FB7FE1DC0D101ED91FC91BC81B130BD
:103E600059F40480F581E02D2B853C854B895C89D4
:103E7000B301C10109950CC00684F785E02DEB84E0
:103E8000FC84860196014A815B81B201C1010995DA
:103E9000BB0CED89FE894E0E5F1EFFEF6F1A7F0A85
:103EA000C2CFA30E49814F5F498398CF6A960FB660
:103EB000F894DEBF0FBECDBFDF91CF911F910F9160
:103EC000FF90EF90DF90CF90BF90AF909F908F903A
:103ED0007F906F905F904F903F902F900895AF929A
:103EE000BF92CF92EF92FF920F931F93CF93DF93E6
:103EF000EC01262F888D998D009709F042C06A3019
:103F000069F42C898E859F8538E0239F800D911D53
:103F100011249F878E871D861C86ABC06D3009F4E7
:103F2000A8C08E898823C1F03C898C859D8546E098
:103F3000349F800D911D112448855985841795075C
:103F40005CF01D861C868E859F85E8E03E9F800D77
:103F5000911D11249F878E87EA88FB88088919891B
:103F60004E855F856C857D85CC88CE010E94CD1DF8
:103F70002C898C859D85F6E02F9F800D911D112445
:103F800041C06A3079F41D861C864C89FC01369646
:103F900084912E853F85489F200D311D11243F8738
:103FA0002E8767C06D3009F464C0AC014C5F5F4F71
:103FB000FA013491631708F45CC03196E491E61776
:103FC00008F457C0FA014491362F341BFC01329695
:103FD000A590B490F7E03F9FA00CB11C1124F5010F
:103FE0003296A4913196E491AA2311F0E1110DC00B
:103FF000F5013496A4902C898C859D85A29E800D18
:10400000911D11249D878C8734C0F5013596E4916C
:104010003E89332309F13C89B0E0AE0FB11DE7FDC5
:10402000BA953A9FA0013B9F500D11246C857D8568
:10403000460F571F68857985461757076CF01D8610
:104040001C86FC01369684914E855F85389F400D15
:10405000511D11245F874E87EA88FB8808891989DA
:104060004E855F856C857D85CC88CE010E94CD1DF7
:10407000BFCF81E090E0DF91CF911F910F91FF9032
:10408000EF90CF90BF90AF900895FC017587648743
:10409000578746870895611101C061E0FC01648B78
:1040A0000895FC01738B628B718B608B0895FC010A
:1040B0006370658B8481958126813781613039F009
:1040C000633029F09187808733872287089531876D
:1040D0002087938782870895FC01808591850895C4
:1040E000FC01828593850895FC01EF54FF4F2081E8
:1040F000DC0134E02302A00DB11D1124A05BBF4FF1
:104100002C912081DC0134E02302A00DB11D11248B
:10411000A35BBF4F6C932081DC0134E02302A00D30
:10412000B11D1124A25BBF4F11965C934E93208169
:10413000DC0134E02302A00DB11D1124A05BBF4FB0
:104140001C9280818F5F80838081893109F4108285
:1041500010820895CF93DF93DC01FC01EE54FF4FF2
:104160008081ED0124E08202C00DD11D1124C05BCD
:10417000DF4F8881811131C08081ED0194E0890297
:10418000C00DD11D1124C35BDF4F88819D968C9398
:104190009D978081ED0124E08202C00DD11D112484
:1041A000C25BDF4F888199819F969C938E939E97E7
:1041B00081E09C968C939C97908124E09202A00DC4
:1041C000B11D1124A05BBF4F8C9380818F5F8083D2
:1041D0008081893109F410821082DF91CF91089596
:1041E000CF93C0E0809105078C130AC0EC2FF0E05C
:1041F000EE0FFF1FEA5FF84F80819181009729F44D
:10420000CF5FC03179F7CF9108950E940723F8CF8F
:104210001F93CF93DF93182FEB0141E060EF70E223
:104220000E948404E12FF0E0EE0FFF1FEA5FF84FD9
:10423000D183C083DF91CF911F9108951F920F9278
:104240000FB60F9211240F931F932F933F934F9309
:104250005F936F937F938F939F93AF93BF93CF930E
:10426000DF93EF93FF93C6E0D7E00FEF1FE7E881FE
:10427000F9813097D1F0808191810197918380837A
:1042800080819181892B41F4118300838381828312
:104290001382CF010E946423E881F981808191819A
:1042A0008436910511F411830083229687E0C6328B
:1042B000D807E9F6FF91EF91DF91CF91BF91AF91D0
:1042C0009F918F917F916F915F914F913F912F912E
:1042D0001F910F910F900FBE0F901F901895CF93C5
:1042E000DF93EC016FE175E0C6960E94C1336FE188
:1042F00075E0CE01CC96DF91CF910C94C133CF9372
:10430000DF93EC01862F6C834D8361E00E94EC2EDD
:1043100062E08D810E94EC2E8FEF9FE79983888366
:104320001A821B821CA21DA21FA21EA219A618A6D9
:104330001BA61AA6FE01EF54FF4F10823196108281
:10434000319610828FEA87BDEEE6F0E080818260D0
:104350008083BE018D81DF91CF910C9408218D5413
:104360009F4FFC01108208958D549F4FFC01808166
:104370000895FC0185A50895FC0180A90895FC011C
:1043800081A90895FC0182A90895FC0183A90895DB
:10439000FC0184A90895FC0185A90895CF93DF93BA
:1043A000EC016A5C7F4F0E94EE33CE01DF91CF912A
:1043B00008958E5B9F4FFC016081718182819381A2
:1043C0000895885B9F4FFC0180810895FC0186A5BC
:1043D00097A5807690E025E0959587952A95E1F759
:1043E00080AB86A597A58C71869586958F5F81ABEE
:1043F00086A597A583708F5F82AB0895FC0186A583
:1044000097A5887190E033E0959587953A95E1F707
:1044100080AB86A597A5969587959695879581708B
:1044200084AB26A537A523702F5F22AB882311F01C
:1044300081E30DC0213011F480E309C0223011F472
:104440008AE505C0233011F482E301C083E383AB26
:104450000895FC01E75BFF4F1082FC0126A537A5FC
:1044600025ABE85BFF4F108232972083203109F49F
:104470007CC050F5273009F463C090F4243009F46F
:1044800056C038F4223009F44CC0233009F44CC033
:104490000895253009F44EC0263009F44EC0089521
:1044A0002A3009F456C038F4283009F44CC02930B9
:1044B00009F44CC008952C3009F451C008F44CC0E4
:1044C0002F3009F44FC00895203409F460C090F4EF
:1044D000213209F453C038F4213109F449C02032A3
:1044E00009F449C00895213309F44BC0223309F47B
:1044F0004BC00895233409F453C038F4213409F42F
:1045000049C0223409F449C00895203809F44BC049
:10451000203909F44BC0283409F04DC06EEB74E02B
:1045200047C066E173E044C06BE273E041C068E4F9
:1045300073E03EC065E673E03BC06CE773E038C0F3
:1045400063E973E035C069EA73E032C06FEB73E092
:104550002FC065ED73E02CC063EF73E029C061E10B
:1045600074E026C067E274E023C06AED72E020C008
:104570006CEE72E01DC06AE374E01AC06DE474E092
:1045800017C06DE574E014C060E774E011C06CE71B
:1045900074E00EC068E874E00BC06AE974E008C01B
:1045A0006CEA74E005C060ED74E002C06DED74E08B
:1045B000C6960C94F7330895FC01E75BFF4F20810A
:1045C0002F5F2083FC0146A557A5EE5BFF4F5527C3
:1045D00060E070E04083518362837383FC0126A511
:1045E00037A5EA5BFF4F8081820F80830895FC012D
:1045F00026A537A5E95BFF4F20833197308132969E
:10460000321303C081E080830895108208950F93D0
:104610001F93CF93DF931F92CDB7DEB78C010E941B
:10462000032E2091260730912707AB01421B530B25
:104630009A0141505109433F514028F4F80184A1A7
:104640008F5F84A33BC049E050E0F8015183408371
:104650007093270760932607C9018C509E4F68EE20
:1046600073E00E94AB36858169830E945B2F69816C
:10467000892B09F46195F80183818C3150F4838191
:10468000843070F0F8018381843048F0161664F0AD
:1046900006C0F80185A18F5F85A313820FC0F801C2
:1046A0008381E80FF11D05C0F8018381E80FF11D3A
:1046B00061506783F80183818F5F83830F90DF915F
:1046C000CF911F910F910895FC018281863020F4D3
:1046D00040E050E063E75CC08085833019F4818559
:1046E0008A3F21F040E050E068E652C08281853187
:1046F00040F08285833029F48485811102C060E511
:104700000AC08281853148F08285833031F4848506
:10471000813019F463E425E117C08281833118F0F8
:104720008285833031F18281813118F08285833036
:1047300031F182818D3048F18285863031F5828178
:104740008F3018F562E42DE085E090E040E050E025
:1047500030E028173907E4F0440F551FDF01A80F98
:10476000B91F17967C91470F511D77FD5A950296F8
:10477000F0CF82818531B8F664E423E1E5CF828110
:104780008331B8F664E521E1DFCF40E050E064E733
:10479000CF010C9474201F93CF93DF93EC01DC01C5
:1047A000AD54BF4F8C91882389F080E090E021E0E8
:1047B000FC017496EE0FFF1FEE0FFF1FEC0FFD1FA5
:1047C000208301968931910599F71C92CE010E94B0
:1047D000AA201CA5112309F443C08DA5843521F41A
:1047E000CE010E94E6213BC08DA5823421F4CE018A
:1047F0000E94FE2134C08DA5803521F4CE010E9497
:1048000029222DC08DA5843421F4CE010E94DC2202
:1048100026C08DA5833421F4CE010E94F7221FC04B
:104820008DA5833739F42EA13FA12F5F3F4F3FA3C2
:104830002EA313C08DA5843739F428A539A52F5F81
:104840003F4F39A728A709C08DA5883641F42AA56E
:104850003BA52F5F3F4F3BA72AA788E58DA71CA646
:10486000812FDF91CF911F910895CF92DF92EF9228
:10487000FF92CF93DF93EC01F62E0E94032E28EED9
:1048800033E0F29E6001F39ED00C1124EE24D7FC9D
:10489000E094FE2C28E1C21AD108E108F108C60E06
:1048A000D71EE81EF91E0E94032E6C157D058E058D
:1048B0009F0588F461E08C810E94252F8CE090E0B8
:1048C0000E94602E60E08C810E94252F8CE090E099
:1048D0000E94602EE8CFDF91CF91FF90EF90DF90A4
:1048E000CF900895CF92DF92EF92FF920F931F9394
:1048F000CF93DF9300D0CDB7DEB76C018A0164346B
:10490000D1F1B4F4623409F450C0633409F05DC0ED
:10491000FC0103A110E063E00E94352480E797E1E9
:104920000E94602E63E0C6010E943524116038C0E9
:10493000603599F0643509F048C063E00E94352481
:1049400080E797E10E94602E63E0C6010E94352453
:1049500025E030E087E090E03CC0FC0143A363E049
:104960000E94352480E797E10E94602E63E0C60133
:104970000E94352415C0FC0183A1840F83A363E04A
:10498000C6010E94352480E797E10E94602E63E013
:10499000C6010E94352429E130E088E090E019C08A
:1049A00029E130E089E090E014C063E00E94352402
:1049B00080E797E10E94602E66E0C6010E943524E0
:1049C00029E130E085E090E004C029E130E080E0BA
:1049D00090E07C01F1E0EF1AF1088FEFE816F8069D
:1049E000C1F080ED97E029833A830E94602EB801E0
:1049F0000E2C02C0769567950A94E2F761706F5F9E
:104A0000C6010E94352441E0E41AF1083A81298167
:104A1000E4CFB901882777FD8095982F0F900F90EC
:104A2000DF91CF911F910F91FF90EF90DF90CF908A
:104A30000C94262ECF93DF93EC01EB8DFC8D8081BF
:104A40009BA1892B8083EF8DF8A180819DA1892B6B
:104A50008083E9A1FAA180819EA1892B80838BA507
:104A6000882369F060E00E94252F62E070E080E01A
:104A700090E00E94262E61E08BA50E94252FEB8DF1
:104A8000FC8D80819FA189238083ED8DFE8D8081A7
:104A900098A5892380838BB183708BB985B18C7F76
:104AA00085B9EF8DF8A1808199A589238083EF8D49
:104AB000F8A180819DA1892B808383E0EF8DF8A1EF
:104AC000908129A592239083EF8DF8A190812DA14B
:104AD000922B9083815091F7EB8DFC8D80819BA16F
:104AE000892B8083DF91CF910895CF92DF92EF924F
:104AF000FF920F931F93CF93DF93FC01A38DB48D8F
:104B00008C9197A189238C93A58DB68D8C9190A5BE
:104B100089238C938BB183708BB985B18C7F85B9D8
:104B2000A78DB0A18C9191A589238C93A78DB0A15D
:104B30008C9195A1892B8C938BB1837080628BB9FA
:104B400085B18C7F826085B9A78DB0A18C9191A52C
:104B500089238C93A78DB0A18C9195A1892B8C93DF
:104B6000A58DB68D8C9194A1892B8C938BB1C72F79
:104B7000CC7F83708C2B8BB985B1D72FD3708C7F72
:104B80008D2B85B9A78DB0A18C9191A589238C938C
:104B9000A78DB0A18C9195A1892B8C938BB1162FE9
:104BA0001C7F8370812B8BB985B1062F03708C7F9E
:104BB000802B85B9A78DB0A18C9191A589238C9369
:104BC000A78DB0A18C9195A1892B8C93215031098F
:104BD0004109510969017A0186E0F694E794D79476
:104BE000C7948A95D1F780E090E0761339C1C81652
:104BF000D90609F466C060E1A78DB0A17C91C1A57A
:104C00007C237C93A78DB0A17C91C5A17C2B7C9348
:104C1000A78DB0A17C91C1A57C237C93A78DB0A169
:104C20007C91C5A17C2B7C93A78DB0A17C91C1A563
:104C30007C237C93A78DB0A17C91C5A17C2B7C9318
:104C4000A78DB0A17C91C1A57C237C93A78DB0A139
:104C50007C91C5A17C2B7C93A78DB0A17C91C1A533
:104C60007C237C93A78DB0A17C91C5A17C2B7C93E8
:104C7000A78DB0A17C91C1A57C237C93A78DB0A109
:104C80007C91C5A17C2B7C93A78DB0A17C91C1A503
:104C90007C237C93A78DB0A17C91C5A17C2B7C93B8
:104CA000A78DB0A17C91C1A57C237C93A78DB0A1D9
:104CB0007C91C5A17C2B7C93615009F09DCF01961E
:104CC00096CF2F732150C8F0A78DB0A18C9191A5DC
:104CD00089238C93A78DB0A18C9195A1892B8C935E
:104CE000A78DB0A18C9191A589238C93A78DB0A19C
:104CF0008C9195A1892B8C93E5CFA38DB48D8C914C
:104D000093A1892B8C93DF91CF911F910F91FF90ED
:104D1000EF90DF90CF9008957BB173707C2B7BB9BF
:104D200075B17C7F7D2B75B9A78DB0A17C91F1A465
:104D30007F217C93A78DB0A17C91F5A07F297C93E6
:104D40007BB17370712B7BB975B17C7F702B75B99A
:104D5000A78DB0A17C91F1A47F217C93A78DB0A1F8
:104D60007C91F5A07F297C937BB173707C2B7BB900
:104D700075B17C7F7D2B75B9A78DB0A17C91F1A415
:104D80007F217C93A78DB0A17C91F5A07F297C9396
:104D90007BB17370712B7BB975B17C7F702B75B94A
:104DA000A78DB0A17C91F1A47F217C93A78DB0A1A8
:104DB0007C91F5A07F297C937BB173707C2B7BB9B0
:104DC00075B17C7F7D2B75B9A78DB0A17C91F1A4C5
:104DD0007F217C93A78DB0A17C91F5A07F297C9346
:104DE0007BB17370712B7BB975B17C7F702B75B9FA
:104DF000A78DB0A17C91F1A47F217C93A78DB0A158
:104E00007C91F5A07F297C937BB173707C2B7BB95F
:104E100075B17C7F7D2B75B9A78DB0A17C91F1A474
:104E20007F217C93A78DB0A17C91F5A07F297C93F5
:104E30007BB17370712B7BB975B17C7F702B75B9A9
:104E4000A78DB0A17C91F1A47F217C93A78DB0A107
:104E50007C91F5A07F297C93615009F05DCF01968C
:104E6000C816D90611F060E157CF2F73215008F40E
:104E700044CF8BB183708C2B8BB985B18C7F8D2BFC
:104E800085B9A78DB0A18C9191A589238C93A78D0D
:104E9000B0A18C9195A1892B8C938BB18370812BC0
:104EA0008BB985B18C7F802B85B9A78DB0A18C91F2
:104EB00091A589238C93A78DB0A18C9195A1892B65
:104EC0008C93D4CFCF93DF93EC010E945720EB8DCE
:104ED000FC8D80819FA189238083DF91CF910895EC
:104EE000FC01A1A1B2A18C9192A589238C9300C051
:104EF00000C000C0000089B193B1A1A1B2A12C9162
:104F000036A1232B2C9393708C7F892B08958AB123
:104F10008C6F8AB984B1836084B90895CF93DF938D
:104F2000EC010E9487271D8A1D861C861F861E860F
:104F300081E08C8B8FEF9FEF998B888B80EF90E0D7
:104F40009987888780E491E09B878A87DF91CF915A
:104F50000895CF93DF93EC0140E451E060EF70E0FF
:104F60000E94641C89EF94E09983888382E18BA777
:104F7000E4E8F8E0E491F0E0EE0FFF1FEF56F74FA2
:104F8000A591B491BC8FAB8FE3E8F8E0E491F0E039
:104F9000EE0FFF1FEF56F74F859194919E8F8D8FE7
:104FA000E2E8F8E0E491F0E0EE0FFF1FEF56F74F74
:104FB0008591949198A38F8FE1E8F8E0E491F0E077
:104FC000EE0FFF1FEF56F74F859194919AA389A397
:104FD000E0E7F8E0E491EBA3EFE6F8E0E491ECA37E
:104FE000EEE6F8E0E491EDA3EDE6F8E0E491EEA35F
:104FF0009BA1892F80958FA38CA1809588A78DA1D7
:10500000809589A7E095EAA78C91892B8C93ED8DEB
:10501000FE8D80819CA1892B8083EF8DF8A18081FA
:105020009DA1892B8083E9A1FAA180819EA1892B72
:10503000808361E081E10E94EC2E61E080E10E94CA
:10504000EC2E61E08FE00E94EC2E61E08EE00E9489
:10505000EC2E61E082E10E94252F61E082E10E9456
:10506000EC2ECE01DF91CF910C948E278AB1837004
:105070008AB984B18C7F84B908950F931F93CF931D
:10508000DF93EC01EB8DFC8D80819FA189238083D0
:10509000ED8DFE8D808198A5892380838BB18370EF
:1050A0008BB985B18C7F85B9EF8DF8A1808199A5E9
:1050B00089238083EF8DF8A180819DA1892B808336
:1050C000EF8DF8A1808199A589238083EF8DF8A1C8
:1050D00080819DA1892B8083CE010E943628ED8D91
:1050E000FE8D80819CA1892B8083CE010E94702738
:1050F000182FCE010E947027082FCE010E9487270B
:10510000EB8DFC8D90818BA1982B9083802F90E06C
:10511000912BDF91CF911F910F910895FC01A58DE7
:10512000B68D8C9190A589238C939BB1872F8C7F12
:105130009370892B8BB985B173708C7F782B75B97F
:10514000A78DB0A18C9191A589238C93A78DB0A137
:105150008C9195A1892B8C939BB1862F8C7F93701A
:10516000892B8BB985B163708C7F682B65B9A78D4E
:10517000B0A18C9191A589238C93A78DB0A18C911E
:1051800095A1892B8C93A58DB68D8C9194A1892B9B
:105190008C939BB1852F8C7F9370892B8BB985B1B4
:1051A00053708C7F582B55B9A78DB0A18C9191A5C8
:1051B00089238C93A78DB0A18C9195A1892B8C9379
:1051C0009BB1842F8C7F9370892B8BB985B14370F1
:1051D0008C7F482B45B9A78DB0A18C9191A58923CF
:1051E0008C93A78DB0A18C9195A1892B8C93089558
:1051F0008F929F92AF92BF92CF92DF92EF92FF92E7
:105200000F931F93CF93DF93EC017A016901EB8D2C
:10521000FC8D80819FA1892380838D89823089F0D4
:10522000833021F1813081F58FEE90E09C01201BCD
:10523000310B5B014C01841A950A860164017B01E4
:1052400013C08FEE90E09C012C193D096C01C61A29
:10525000D70A8FE391E0AC01401B510B8C010E1972
:105260001F09580146017A01B90110C08FE391E08E
:105270009C012C193D095C01A61AB70A4A01680174
:105280008501B701790102C05A014B01AB0160E50C
:1052900070E0CE010E948E28A60161E570E0CE018B
:1052A0000E948E28A70162E570E0CE010E948E2840
:1052B000A80163E570E0CE010E948E28A40160E29F
:1052C00070E0CE010E948E28A50161E270E0CE015F
:1052D0000E948E28EB8DFC8D80819BA1892B808381
:1052E000DF91CF911F910F91FF90EF90DF90CF90C2
:1052F000BF90AF909F908F900895CF92DF92EF92E2
:10530000FF920F931F93CF93DF93EC016901780114
:1053100012161306F4F557FD3CC08A859B85481785
:105320005907BCF5888599856817790794F5FB01BD
:10533000E20FF31F9F012150310937FD2AC077FF8B
:1053400003C06F0160E070E02817390734F09C015A
:10535000215031096C01C61AD70A8A01CE010E9478
:10536000F8289601442737FD4095542FB701CE0108
:105370000E9475250A851B850150110928853985EC
:105380002150310940E050E060E070E0CE010E9421
:10539000F828DF91CF911F910F91FF90EF90DF9050
:1053A000CF900895CF92DF92EF92FF920F931F93C9
:1053B000CF93DF93EC016901780112161306F4F51F
:1053C00077FD3CC08885998568177907BCF58A8583
:1053D0009B854817590794F59A012C0D3D1D8901AD
:1053E0000150110917FD2AC057FF03C0690140E0B1
:1053F00050E00817190734F08C01015011096C01B5
:10540000C41AD50A9B01CE010E94F82896014427B0
:1054100037FD4095542FB701CE010E9475250A85AE
:105420001B8501501109288539852150310940E03B
:1054300050E060E070E0CE010E94F828DF91CF914B
:105440001F910F91FF90EF90DF90CF9008958F9272
:105450009F92AF92BF92CF92DF92EF92FF920F9303
:105460001F93CF93DF93EC01590168014701121696
:1054700013060CF058C0101611060CF054C08885A5
:105480009985681779070CF04EC0EA84FB844E15A5
:105490005F050CF048C0FB01E20FF31F9F01215094
:1054A000310937FD40C0DA01A00FB11F8D01015055
:1054B000110917FD38C077FF03C05F0160E070E09D
:1054C00057FF03C06D0140E050E02817390734F062
:1054D0009C01215031095C01A61AB70A0E151F055F
:1054E00034F08701015011096701C41AD50ACE01B1
:1054F0000E94F8289601D5010E9400379B01AC015B
:10550000B401CE010E9475250A851B850150110941
:10551000288539852150310940E050E060E070E095
:10552000CE010E94F828DF91CF911F910F91FF903B
:10553000EF90DF90CF90BF90AF909F908F900895A5
:105540000F931F93CF93DF93EC010E941A25EB8DED
:10555000FC8D80819FA18923808303E417E0F801FB
:1055600085919491F8013296459154918F3F910520
:1055700031F4BA0180E090E00E94262E04C0BC0104
:10558000CE010E948E280C5F1F4F88E00B34180755
:1055900031F76D89CE010E9462270FE311E02FEEF3
:1055A00030E040E050E060E070E0CE010E94F8287A
:1055B000DF91CF911F910F910895EF92FF920F937A
:1055C0001F93CF93DF93EC017B01ED89E150E33032
:1055D00068F4F0E0DF01AE50BB4F4C9150E0EE0FAD
:1055E000FF1FE451FB4F0081118104C000E010E077
:1055F00040E050E0EB8DFC8D80819FA1892380836A
:1056000060E270E0CE010E948E28A80161E270E0A5
:10561000CE010E948E2820E03CE241E050E0B7013C
:10562000CE01DF91CF911F910F91FF90EF900C94DD
:105630007525EF92FF920F931F93CF93DF93EC01A9
:105640008A01790177FD4DC057FD4BC0888599854A
:10565000681779070CF045C08A859B85481759075C
:105660000CF03FC0EB8DFC8D80819FA1892380834E
:105670008D89823059F08330B1F08130D1F48FEED2
:1056800090E0841B950B8B01BC0113C08FEE90E062
:105690009C01261B370BB9018FE391E09C01241B71
:1056A000350B890106C08FE391E0861B970BBA0189
:1056B0008C01AB0160E270E0CE010E948E28A8014F
:1056C00061E270E0CE010E948E28A70162E270E0E4
:1056D000CE010E948E28EB8DFC8D80819BA1892BB1
:1056E0008083DF91CF911F910F91FF90EF900895EC
:1056F000FF920F931F93CF93DF93EC018A0177FD05
:1057000095C057FD93C088859985681779070CF077
:105710008DC08A859B85481759070CF087C0EB8D93
:10572000FC8D80819FA1892380838D89823059F0EF
:105730008330B1F08130D1F48FEE90E0841B950B73
:105740008B01BC0113C08FEE90E09C01261B370B30
:10575000B9018FE391E09C01241B350B890106C040
:105760008FE391E0861B970BBA018C01AB0160E2DD
:1057700070E0CE010E948E28A80161E270E0CE01A7
:105780000E948E2812E0ED8DFE8D808198A58923E0
:1057900080838BB183708BB985B18C7F85B9EF8D98
:1057A000F8A1808199A589238083EF8DF8A180815C
:1057B0009DA1892B80838BB1837080628BB985B169
:1057C0008C7F826085B9EF8DF8A1808199A58923AE
:1057D0008083EF8DF8A180819DA1892B8083ED8D41
:1057E000FE8D80819CA1892B8083CE010E9436286A
:1057F000CE010E947027CE010E947027CE010E9428
:105800007027082FCE010E947027F82ECE010E942B
:105810008727115009F0B7CFEB8DFC8D90818BA1BC
:10582000982B90838F2D90E0902B02C080E090E029
:10583000DF91CF911F910F91FF9008952F923F928A
:105840004F925F926F927F928F929F92AF92BF9290
:10585000CF92DF92EF92FF920F931F93CF93DF933C
:10586000CDB7DEB72A970FB6F894DEBF0FBECDBF17
:105870008C01FC01A581B0E0FD01ED58F74FC4900B
:10588000FC018281682F70E0FB01ED58F74FE49036
:10589000F801448150E0FA01ED58F74FA490F80167
:1058A000238130E0F901ED58F74F6490FD01E15A92
:1058B000F74F9490FB01E15AF74F8490FA01E15AB7
:1058C000F74FB490F901E15AF74F2491288760E02F
:1058D0000E94EC2E60E0F80183810E94EC2EF12CF6
:1058E000EE0CFF1CC7018F56974F7C01FC01A59160
:1058F000B4918C91282D2095298782238C93712C2B
:10590000660C771CC3018F56974F3C01FC01A59193
:10591000B4918C919885909589238C9361E0F801DE
:1059200085810E94EC2E61E0F80184810E94EC2EBA
:10593000D12CCC0CDD1CC6018F56974F6C01FC019D
:10594000A591B4918C9189298C93EA2DF0E0EE0F0A
:10595000FF1FEF56F74FA591B4918C91B0948B2116
:105960008C93F80182810E94A62E1C01F80182818D
:105970000E94A62E2C01AA24AA9473E0B72EA81A7E
:10598000B90A60E0F80185810E94EC2E60E0F80120
:1059900084810E94EC2EF601A591B4918C91909493
:1059A0009A8689218C9361E0F80182810E94EC2E15
:1059B000F701A591B4918C9188298C9361E0F8014D
:1059C00083810E94EC2EF80184810E94A62E4C0156
:1059D000F80184810E94A62E8816990629F4F1E028
:1059E000FF832414350409F01F8288248A9423E05D
:1059F000922E881A990A61E0F80185810E94EC2EA6
:105A0000F601A591B4918C912A8582238C93F301A0
:105A1000A591B4918C912885822B8C93F701A59147
:105A2000B4918C91298582238C9360E0F801828166
:105A30000E94EC2EF80184810E94A62E7C01F801C0
:105A400082810E94A62EF801068117810115110599
:105A500009F441C0BC01882777FD8095982F0E94EA
:105A6000A0352B013C01B701882777FD8095982F41
:105A70000E94A0359B01AC01C301B2010E94053513
:105A800020E030E040E85FE30E94A0346B017C013D
:105A9000B501882777FD8095982F0E94A0359B013E
:105AA000AC01C701B6010E942C366B017C01B80124
:105AB00080E090E00E949E359B01AC01C701B601D9
:105AC0000E942C3620E030E040E85AE30E942C3659
:105AD0000E946D3505C0B701681B790B61507C4F82
